:020000040800F2
:100000000050002075370008250B0008270B00085A
:10001000290B00082B0B00082D0B00080000000026
:10002000000000000000000000000000D12B0008CC
:100030002F0B000800000000712C0008310B000895
:10004000BD370008BD370008BD370008BD370008C0
:10005000BD370008BD370008BD370008BD370008B0
:10006000BD370008BD370008BD370008490B000840
:10007000BD370008BD370008590B0008690B0008A0
:10008000BD370008BD370008790B0008BD370008F0
:10009000BD370008BD370008BD370008BD37000870
:1000A000BD370008BD370008BD370008BD37000860
:1000B000890B0008BD370008BD370008BD370008B0
:1000C000BD370008BD370008BD370008BD37000840
:1000D000BD3700083D05000869050008BD37000868
:1000E000BD370008BD370008BD370008000000001C
:1000F0000000000000000000000000000000000000
:0C01000000000000000000005FF808F1A3
:1001100010B5054C237833B9044B13B10448AFF341
:1001200000800123237010BD54080020000000004F
:100130001449000808B5034B1BB103490348AFF34A
:10014000008008BD00000000580800201449000885
:10015000844641EA000313F0030349D1403A23D314
:100160000B6803604B6843608B688360CB68C36037
:100170000B6903614B6943618B698361CB69C3611F
:100180000B6A03624B6A43628B6A8362CB6AC36207
:100190000B6B03634B6B43638B6B8363CB6BC363EF
:1001A00040304031403ADBD230320BD30B68036031
:1001B0004B6843608B688360CB68C360103010313C
:1001C000103AF3D20C3205D351F8043B40F8043B0B
:1001D000043AF9D2043208D0D2071CBF11F8013B0F
:1001E00000F8013B01D30B8803806046704700BFD5
:1001F000082A13D38B07B1D010F00303AED0C3F19C
:100200000403D21ADB071CBF11F8013B00F8013BC5
:10021000A4D331F8023B20F8023B9FE7043AD9D33C
:10022000013A11F8013B00F8013BF9D20B78037059
:100230004B7843708B7883706046704708B50C4BE1
:100240000C4A1A60586000229A60DA601A619A615A
:100250000C225A61184602F01DF928B901220649FC
:10026000034802F0CAFB08BD00F08CFBF6E700BFB4
:10027000A408002000380140F809002008B50C4B04
:100280000C4A1A60586000229A60DA601A610C21E8
:1002900059619A61DA61184602F0FCF828B9012226
:1002A0000549034802F0A9FB08BD00F06BFBF6E727
:1002B000E808002000440040FC090020F0B58DB0A3
:1002C0000368544A934204D0534A934272D00DB00B
:1002D000F0BD0446514B9A6942F004029A619A6952
:1002E00002F004020092009A9A6942F480429A61F4
:1002F0009A6902F480420192019A9A6942F00102DD
:100300009A619B6903F001030493049B4FF400730B
:1003100008930223099301230A9303230B93404F6D
:1003200008A9384601F098F84FF480660896002531
:10033000099508A9384601F08FF83A483A4B03600E
:10034000456085608023C3604FF48073036146611C
:1003500085614FF40053C36100F038FF20BB314B7F
:10036000A3635C623148324B036010234360002377
:1003700083608022C2604FF4807202614FF4806219
:10038000426183614FF40053C36100F01FFF70B9F5
:10039000264B63635C62252000F0F6FE00221146C6
:1003A000252000F0B9FE92E700F0ECFAD7E700F064
:1003B000E9FAEDE7194BDA6942F40032DA61DA69F9
:1003C00002F400320292029A9A6942F004029A619F
:1003D0009B6903F004030393039B04230493022308
:1003E0000593032307930E4D04A9284601F034F822
:1003F0000823049300240594069404A9284601F0D8
:100400002BF822462146262000F086FE262000F00A
:10041000BBFE5CE700380140004400400010024091
:1004200000080140000A002058000240440A002051
:100430004400024010B58EB00446002101912E22E6
:1004400002A803F0E7F92368324A934204D0324A03
:10045000934230D00EB010BD304A1388B2F900205C
:10046000002AF7DB13F4804F0ED02D4A12780A2AA7
:1004700003D02A4B00221A80ECE76FEA43436FEA6D
:100480005343264A1380E5E7254A12780D2A0DD0FA
:10049000C3F30D012348425401339BB21F4A13801A
:1004A000C72BD7D9134600221A80D3E743F48043E1
:1004B0001A4A1380CEE71C4B1A78511C19701B4B3B
:1004C00019781B4B99541B785A2B02D0164B0022DB
:1004D0001A70154B1B78022B13D0134B1A78042A71
:1004E000B8D9134BDB7805339A42B3D11049114880
:1004F000FFF72EFE104B01221A700B4B00221A70D0
:10050000A8E70B4B5B785A2BE7D0074B00221A70F9
:10051000E3E700BF0038014000440040F409002038
:10052000F80900202C090020880A0020FC0900207E
:100530008C0A002070080020990A002008B508489D
:1005400002F038F9064802F037FA2028FAD10122E1
:100550000449034802F051FA0028F8D108BD00BF51
:10056000A4080020F809002008B5084802F022F984
:10057000064802F021FA2028FAD101220449034852
:1005800002F03BFA0028F8D108BD00BFE8080020BF
:10059000FC09002000B585B000230193029303936A
:1005A0004B484C4A02604FF48072826003730375BB
:1005B0004FF4C022C26143600A23036100F014FDBE
:1005C000002864D10023019301220292039301A920
:1005D0003F4800F03BFC00285CD10123019302233B
:1005E000029301A93A4800F031FC002855D10223BA
:1005F00001930323029301A9354800F027FC00284A
:100600004ED103230193042302930DEB03013048E1
:1006100000F01CFC002846D104230193052302931B
:1006200001A92B4800F012FC00283FD105230193BB
:100630000623029301A9264800F008FC002838D1BF
:10064000062301930723029301A9214800F0FEFB32
:1006500090BB072301930823029301A91C4800F0D3
:10066000F5FB60BB082301930923029301A91848F5
:1006700000F0ECFB30BB092301930A23029301A98C
:10068000134800F0E3FB00BB05B05DF804FB00F08D
:1006900079F997E700F076F99FE700F073F9A6E79C
:1006A00000F070F9ADE700F06DF9B5E700F06AF918
:1006B000BCE700F067F9C3E700F064F9C9E700F0B0
:1006C00061F9CFE700F05EF9D5E700F05BF9DBE711
:1006D0009C0A00200024014030B589B00023049317
:1006E00005930693079302682A4B9A4201D009B0FA
:1006F00030BD044603F56C439A6942F400729A6176
:100700009A6902F400720192019A9A6942F0040215
:100710009A619A6902F004020292029A9A6942F07E
:1007200008029A619B6903F008030393039BFD236E
:1007300004930325059504A9174800F08DFE049540
:10074000059504A9154800F087FE1548154B036070
:100750000023436083608022C2604FF48072026194
:100760004FF48062426183614FF48053C36100F0B3
:100770002DFD58B90A4B23625C620022052112202C
:1007800000F0CAFC122000F0FFFCB0E700F0FAF81D
:10079000F0E700BF0024014000080140000C0140C8
:1007A000CC0A00200800024000B583B0124B5A6901
:1007B00042F001025A615B6903F001030193019B5E
:1007C000002205210B2000F0A7FC0B2000F0DCFC30
:1007D000002205210E2000F09FFC0E2000F0D4FC2A
:1007E000002205210F2000F097FC0F2000F0CCFC28
:1007F00003B05DF804FB00BF0010024008B5012003
:1008000002F057F9FBE708B5012002F052F9FBE7C7
:1008100008B5012002F04DF9FBE7000008B50A4CCD
:1008200001220221204600F029FF4FF4FA7002F065
:1008300040F900220221204600F020FF4FF4FA7018
:1008400002F037F9EBE700BF00080140034B0360FB
:10085000034B0B6080231360704700BF200D002006
:10086000200B002010B59CB0244C0DF1540CA64672
:10087000BEE80F00ACE80F009EE807008CE8070018
:10088000002115A802F0E0F81D4B18600DF1380C9E
:1008900004F11C0EBEE80F00ACE80F009EE8070054
:1008A0008CE8070000210EA802F0CEF8154B186066
:1008B0000DF11C0C04F1380EBEE80F00ACE80F007F
:1008C0009EE807008CE80700002107A802F0BCF8AA
:1008D0000D4B1860EE4604F1540CBCE80F00AEE876
:1008E0000F009CE807008EE807000021684602F030
:1008F000ABF8064B18601CB010BD00BF2C490008B7
:10090000140B0020180B0020100B00201C0B0020E3
:1009100010B588B000220492059206920792174BF8
:10092000996941F020019961996901F020010191D3
:100930000199996941F004019961996901F00401F3
:1009400002910299996941F0080199619B6903F04C
:1009500008030393039B0A4C0221204600F08EFEFD
:10096000022304930123059306930323079304A909
:10097000204600F071FD08B010BD00BF001002401D
:100980000008014072B6FEE700B595B028220021AC
:100990000DEB020002F03EFF002305930693079340
:1009A00008930993019302930393049301220A92FB
:1009B0004FF480330B930E920222119212934FF454
:1009C000E01313930AA800F075FEC8B90F2305932E
:1009D00002210691002307934FF480620892099345
:1009E00005A801F0A7F868B9022301934FF400436A
:1009F000039301A801F07AF930B915B05DF804FB52
:100A0000FFF7C0FFFFF7BEFFFFF7BCFF08B500F020
:100A100071F9FFF7B9FFFFF77BFFFFF7C5FEFFF79F
:100A2000B9FD00F0E3F84FF4E130FFF707FC4FF4B5
:100A3000E130FFF723FC044800F008F8FFF712FF4D
:100A400001F0FDFFFEE700BFA408002008B5054B3C
:100A50001860054B1868002302221946806802F0CE
:100A60002BFF08BD740D00201000002010B50138C8
:100A700001280AD814464FF0FF3392B207480068A5
:100A800001F037FD40B9204610BD02F099FE092360
:100A900003604FF0FF30F7E70520F5E7740D002005
:100AA00008B548B94FF0FF3301220848006801F04B
:100AB0008CFD40B9012008BD02F082FE09230360CD
:100AC0004FF0FF30F7E70520F5E700BF740D002079
:100AD00000B583B0114B9A6942F001029A619A699C
:100AE00002F001020092009ADA6942F08052DA6163
:100AF000DB6903F080530193019B00220F216FF00B
:100B0000010000F009FB064A536823F0E06343F05C
:100B10000073536003B05DF804FB00BF0010024097
:100B200000000140FEE7FEE7FEE7FEE7FEE7704754
:100B300008B500F0F1F802F00DFE012800D108BD63
:100B400002F0B8F8FBE7000008B5024800F0E2FB4D
:100B500008BD00BFCC0A002008B5024800F0DAFB4F
:100B600008BD00BF440A002008B5024800F0D2FBCF
:100B700008BD00BF000A002008B5024800F0E0F8F8
:100B800008BD00BF9C0A002008B5024801F0C3F967
:100B900008BD00BF7C0D002008B503460B4A126853
:100BA00042B10A4A106803446A46934206D8074A8B
:100BB000136008BD054A06491160F2E702F000FE25
:100BC0000C2303604FF0FF30F3E700BF780D0020E7
:100BD000601B00204FF0FF3070474FF400534B6014
:100BE00000207047002070477047000000B58BB0B0
:100BF00000230893099301930293039304930593AD
:100C00000693079318484FF08042026047224260E3
:100C1000836040F2CF72C2600361836101F072FAB7
:100C2000C0B900230893099308A90F4801F030FBCD
:100C300098B960230193092302930023039305933A
:100C400004220DEB0201084801F0BAFA40B90BB0DA
:100C50005DF804FBFFF796FEE3E7FFF793FEE8E796
:100C6000FFF790FEF3E700BF7C0D00200368B3F1AF
:100C7000804F00D0704700B583B003F50433DA69C4
:100C800042F00102DA61DB6903F001030193019B89
:100C9000002205211C2000F03FFA1C2000F074FA0D
:100CA00003B05DF804FB000010B504460E4B187845
:100CB0004FF47A73B3FBF0F30C4A1068B0FBF3F017
:100CC00000F070FA68B90F2C01D901200AE0002267
:100CD00021464FF0FF3000F01FFA054B1C6000204A
:100CE00000E0012010BD00BF040000200000002033
:100CF0000800002008B5074A136843F0100313608A
:100D0000032000F0F7F90F20FFF7CEFFFFF7E0FE1A
:100D1000002008BD00200240034A1168034B1B78E5
:100D20000B441360704700BFC40D00200400002076
:100D3000014B1868704700BFC40D00207047704712
:100D400010B5044603685A6812F0200F18D01A68CC
:100D500012F0020F14D0826A12F0100F03D1826ACF
:100D600042F4007282629A6802F46022B2F5602F47
:100D700038D02046FFF7E2FF23686FF012021A60B6
:100D800023685A6812F0800F22D01A6812F0040FFC
:100D90001ED0A26A12F0100F03D1A26A42F40052D0
:100DA000A2629A6802F4E042B2F5E04F31D05A688C
:100DB00012F4806F05D19A6802F46022B2F5602FB8
:100DC00024D0204600F094F923686FF00C021A60DA
:100DD00023685A6812F0400F03D01B6813F0010F0C
:100DE00028D110BD227B002AC3D15A6822F02002EC
:100DF0005A60A36A23F48073A362A36A13F4805F2A
:100E0000B7D1A36A43F00103A362B2E7227B002AB1
:100E1000D7D15A6822F080025A60A36A23F4805323
:100E2000A362A36A13F4807FCBD1A36A43F00103CA
:100E3000A362C6E7A36A43F48033A3622046FFF7A8
:100E40007EFF23686FF001021A60CAE730B482B0F7
:100E50000022019290F82420012A00F0918003469C
:100E6000012280F824204A68062A2DD80468606B85
:100E700002EB8202053A4FF01F0C0CFA02FC20EA4A
:100E80000C000D6805FA02F2024362630A68092A3F
:100E90003AD91C68E06802EB42021E3A4FF0070C98
:100EA0000CFA02FC20EA0C008D6805FA02F20243FB
:100EB000E2600A68103A012A36D90020002283F83D
:100EC000242002B030BC70470C2A0ED80568286B6D
:100ED00002EB8202233A1F24944020EA04000C68AB
:100EE00004FA02F202432A63D0E70568E86A02EBDB
:100EF0008202413A1F24944020EA04000C6804FA5C
:100F000002F20243EA62C1E71C68206902EB420276
:100F10004FF0070C0CFA02FC20EA0C008D6805FA71
:100F200002F202432261C4E71A681648824205D0E1
:100F30009A6A42F020029A620120BFE7906810F49A
:100F4000000F1BD1906840F4000090600A68102ADE
:100F500001D00020B2E70C4A12680C49A1FB021232
:100F6000920C02EB82025200019202E0019A013AD5
:100F70000192019A002AF9D100209FE700209DE705
:100F800002209EE7002401400000002083DE1B4376
:100F900038B503689A6812F0010F01D1002038BDFE
:100FA00004469A6822F001029A60FFF7C1FE0546E6
:100FB00023689B6813F0010F13D0FFF7B9FE431BA2
:100FC000022BF5D923689B6813F0010FF0D0A36AB8
:100FD00043F01003A362E36A43F00103E3620120DC
:100FE000DDE70020DBE7000000287BD070B5044679
:100FF000836A002B4DD02046FFF7CAFFA36A13F087
:10100000100369D1002867D1A26A22F4885222F025
:10101000020242F00202A2626268E1690A43217B95
:1010200042EA4102A568B5F5807F02D0012D36D095
:101030001D46267D012E35D02668716821F4694150
:10104000294371602568AE68274931401143A96082
:10105000A168B1F5807F01D0012902D12369013B4C
:101060001B052568E96A21F470010B43EB622368D4
:1010700099681E4B0B409A4225D0A36A23F01203B5
:1010800043F01003A362E36A43F00103E36201202B
:1010900027E0C36280F82430FFF71EFBABE74FF474
:1010A0008075C6E731B9A169013945EA413141F49A
:1010B0000065C1E7A16A41F02001A162E16A41F047
:1010C0000101E162B8E70023E362A36A23F00303AE
:1010D00043F00103A36204E0A36A43F01003A36298
:1010E000012070BD01207047FDF7E1FFFE0E1FFFDC
:1010F00070470000074AD36823F4E0631B041B0C0D
:10110000000200F4E060034343F0BF6343F40033A4
:10111000D360704700ED00E000B5194BDB68C3F306
:101120000223C3F1070CBCF1040F28BF4FF0040CDD
:1011300003F1040EBEF1060F18D9033B4FF0FF3E3A
:101140000EFA0CFC21EA0C0199400EFA03F322EA94
:101150000303194300280BDB0901C9B200F1604009
:1011600000F5614080F800135DF804FB0023E5E71B
:1011700000F00F000901C9B2024B1954F4E700BF97
:1011800000ED00E014ED00E0002807DB00F01F0296
:10119000400901239340024A42F82030704700BFC3
:1011A00000E100E00138B0F1807F0BD24FF0E02386
:1011B0005861054AF02182F8231000209861072227
:1011C0001A6170470120704700ED00E060B310B471
:1011D00002460168154B0B441548A0FB03031B098D
:1011E0009B001364134BD363022382F821300868F9
:1011F00020F47F5020F03000536894682343D46873
:101200002343146923435469234394692343D469D2
:10121000234303430B6000209063012382F82130B5
:1012200082F8200010BC704701207047F8FFFDBF16
:10123000CDCCCCCC0000024090F82130022B06D05F
:1012400004238363002380F8203001207047026864
:10125000136823F00E0313600268136823F0010380
:101260001360036CC16B012202FA03F34B6080F838
:101270002120002380F820301846704708B590F8E8
:101280002130022B03D004238363012008BD0268B0
:10129000136823F00E0313600268136823F0010340
:1012A00013600368194A934214D0143293421FD03A
:1012B000143293421ED0143293421ED01432934201
:1012C0001ED01432934202D04FF0807203E04FF4EC
:1012D000801200E001220E4B5A60012380F8213079
:1012E000002380F82030436B6BB198470020CDE796
:1012F0001022F0E74FF48072EDE74FF48052EAE7F6
:101300004FF48032E7E70020C0E700BF080002404A
:101310000000024038B5C36B1A6804682568016C88
:1013200004238B40134235D015F0040F32D02368CC
:1013300013F0200F03D1236823F004032360036814
:10134000434A934214D01432934218D01432934239
:1013500017D01432934217D01432934217D014325C
:10136000934202D04FF0806203E04FF4800200E02D
:101370000422384B5A60C36A03B1984738BD4022F3
:10138000F7E74FF48062F4E74FF48042F1E74FF45F
:101390008022EEE702238B4013423CD015F0020F6F
:1013A00039D0236813F0200F06D1236823F00A03F5
:1013B0002360012380F821300368254A934214D02A
:1013C000143293421CD0143293421BD014329342F5
:1013D0001BD0143293421BD01432934202D04FF0F0
:1013E000007203E04FF4001200E00222194B5A6031
:1013F000002380F82030836A002BBFD09847BDE7D8
:101400002022F3E74FF40072F0E74FF40052EDE7CB
:101410004FF40032EAE7082303FA01F11142ADD09C
:1014200015F0080FAAD0236823F00E032360026C86
:10143000C16B012303FA02F24A60836380F8213012
:10144000002380F82030036B002B97D0984795E756
:10145000080002400000024070B582B00024A4469B
:10146000A6E0804DAA4210D007D97F4DAA420CD0E9
:1014700005F58035AA4208D013E0A5F58015AA42EB
:1014800003D005F57025AA4207D18A68002A58D0F2
:10149000012A51D04361082403E0A5F58015AA4232
:1014A000F3D0BEF1FF0F4ED80646BEF1FF0F4CD869
:1014B0004FEA8C0233680F25954023EA050304FAAE
:1014C00002F2134333604B6813F0805F6ED0674BBA
:1014D0009A6942F001029A619B6903F0010301934A
:1014E000019B4FEA9C02951C614B53F825600CF060
:1014F00003039D000F23AB4026EA03065D4B984291
:1015000029D003F58063984200F08E8003F5806354
:10151000984200F08B8003F58063984219D0042331
:101520001AE0CC68BDE7CC680434BAE7CC6808346C
:10153000B7E7CC680C34B4E703610824B1E70024B2
:10154000AFE70424ADE7061DAFE7ACF10802920057
:10155000B0E7032300E00023AB4033430232444DA5
:1015600045F822304B6813F4803F61D0424A13683B
:1015700043EA0E0313604B6813F4003F5ED03E4A0B
:10158000536843EA0E0353604B6813F4801F5BD02B
:10159000394A936843EA0E0393604B6813F4001FC3
:1015A00058D0354AD36843EA0E03D3600CF1010CDE
:1015B0000A6832FA0CF353D0012303FA0CF302EA5F
:1015C000030E33EA0202F1D14A68122A3FF649AF0C
:1015D000122A3FF666AF01A555F822F08B140008D9
:1015E000231500082D1500083F150008A314000856
:1015F000A3140008A3140008A3140008A3140008EF
:10160000A3140008A3140008A3140008A3140008DE
:10161000A3140008A3140008A3140008A3140008CE
:101620002715000833150008012395E7022393E7E7
:10163000114A136823EA0E0313609CE70E4A5368AD
:1016400023EA0E0353609FE70B4A936823EA0E03D5
:101650009360A2E7084AD36823EA0E03D360A5E7A4
:1016600002B070BD000022100000311000100240D6
:101670000000014000080140000401400AB101617E
:10168000704709040161704782B0084B1B68084A23
:10169000A2FB03235B0A00FB03F3019300BF019B42
:1016A0005A1E0192002BF9D102B0704700000020B1
:1016B000D34D6210002800F0F18170B582B004466D
:1016C000036813F0010F2CD0994B5B6803F00C03F7
:1016D000042B1DD0964B5B6803F00C03082B12D033
:1016E0006368B3F5803F41D0002B55D103F18043AF
:1016F00003F504331A6822F480321A601A6822F45F
:1017000080221A6037E08A4B5B6813F4803FE7D091
:10171000874B1B6813F4003F03D06368002B00F075
:10172000BF81236813F0020F75D0814B5B6813F003
:101730000C0F5FD07E4B5B6803F00C03082B54D07A
:101740002369002B00F08A807A4B01221A60FFF790
:10175000EFFA0546764B1B6813F0020F75D1FFF7C1
:10176000E7FA401B0228F5D903209EE1704A13686E
:1017700043F480331360636843B3FFF7D9FA054637
:101780006B4B1B6813F4003FCBD1FFF7D1FA401B22
:101790006428F5D9032088E1B3F5A02F09D0644B64
:1017A0001A6822F480321A601A6822F480221A60C1
:1017B000E1E703F18043A3F53C331A6842F4802249
:1017C0001A601A6842F480321A60D4E7FFF7B0FA60
:1017D0000546574B1B6813F4003FA2D0FFF7A8FA49
:1017E000401B6428F5D903205FE1514B5B6813F47B
:1017F000803FA5D14E4B1B6813F0020F03D0236925
:10180000012B40F04F814A4A136823F0F8036169C5
:1018100043EAC1031360236813F0080F33D0A369B0
:10182000002B5CD0434B0122C3F88024FFF780FAE1
:1018300005463F4B5B6A13F0020F21D1FFF778FAA0
:10184000401B0228F5D903202FE1394A136823F001
:10185000F803616943EAC1031360DCE7354B0022FA
:101860001A60FFF765FA0546314B1B6813F0020F4B
:10187000D1D0FFF75DFA401B0228F5D9032014E10F
:101880000120FFF701FF236813F0040F00F096809A
:10189000274BDB6913F0805F34D1254BDA6942F0C6
:1018A0008052DA61DB6903F080530193019B0125CB
:1018B000214B1B6813F4807F26D0E368012B3DD0B9
:1018C000002B53D103F1804303F504331A6A22F04D
:1018D00001021A621A6A22F004021A6233E0154BFE
:1018E0000022C3F88024FFF723FA0546104B5B6AF9
:1018F00013F0020FC7D0FFF71BFA401B0228F5D9DF
:101900000320D2E00025D3E70B4A136843F4807329
:101910001360FFF70DFA0646074B1B6813F4807F30
:10192000CBD1FFF705FA801B6428F5D90320BCE072
:101930000010024000004242007000405F4A136AFB
:1019400043F001031362E36833B3FFF7F1F906468E
:101950005A4B1B6A13F0020F2FD1FFF7E9F9801BD6
:1019600041F288339842F3D903209EE0052B09D039
:10197000524B1A6A22F001021A621A6A22F0040219
:101980001A62E0E74D4B1A6A42F004021A621A6AC0
:1019900042F001021A62D6E7FFF7CAF90646474B42
:1019A0001B6A13F0020F08D0FFF7C2F9801B41F247
:1019B00088339842F3D9032077E0E5B9E369002B37
:1019C00072D03E4A526802F00C02082A56D0022B0E
:1019D00017D03B4B00221A66FFF7AAF90446374B93
:1019E0001B6813F0007F47D0FFF7A2F9001B022805
:1019F000F5D9032059E0314AD36923F08053D361EC
:101A0000DCE72F4B00221A66FFF792F905462B4BB5
:101A10001B6813F0007F06D0FFF78AF9401B0228ED
:101A2000F5D9032041E0236AB3F5803F1AD023495A
:101A30004B6823F47413226A606A024313434B60B9
:101A40001F4B01221A66FFF773F904461B4B1B68F4
:101A500013F0007F0ED1FFF76BF9001B0228F5D9B8
:101A6000032022E0154A536823F40033A1680B4396
:101A70005360DCE7002018E0002016E0012B16D0B0
:101A80000E4B5B6803F48031226A914211D103F45A
:101A90007013626A93420ED1002006E00120704765
:101AA000012002E0012000E0002002B070BD012012
:101AB000FBE70120F9E70120F7E700BF0010024033
:101AC0000000424286B0174B0FCB0DF1180C0CE909
:101AD0000F0040F20123ADF80430134B5B6803F0B4
:101AE0000C02082A02D0114806B07047C3F38342A3
:101AF00018326A4412F8100C13F4803F0DD00A4BD0
:101B00005B68C3F3404318336B4413F8143C074A33
:101B100002FB00F0B0FBF3F0E6E7054B03FB00F03F
:101B2000E2E700BFDC4900080010024000127A0022
:101B300000093D00002800F0A08070B50D46044665
:101B4000524B1B6803F007038B420BD24F4A1368BA
:101B500023F007030B431360136803F007038B4262
:101B600040F08D80236813F0020F17D013F0040F9C
:101B700004D0474A536843F4E0635360236813F08A
:101B8000080F04D0424A536843F460535360404AFC
:101B9000536823F0F003A1680B435360236813F0EC
:101BA000010F31D06368012B20D0022B25D0384A99
:101BB000126812F0020F64D035494A6822F003021D
:101BC00013434B60FFF7B4F80646314B5B6803F0F4
:101BD0000C036268B3EB820F16D0FFF7A9F8801BE5
:101BE00041F288339842F0D9032045E0284A126830
:101BF00012F4003FE0D101203EE0254A126812F0C5
:101C0000007FD9D1012037E0204B1B6803F0070388
:101C1000AB420AD91D4A136823F007032B43136014
:101C2000136803F00703AB422DD1236813F0040FB0
:101C300006D0174A536823F4E063E1680B4353600E
:101C4000236813F0080F07D0114A536823F4605338
:101C5000216943EAC1035360FFF734FF0C4B5B6813
:101C6000C3F303130B4AD35CD8400B4B18600B4BE8
:101C70001868FFF719F8002070BD01207047012097
:101C8000FAE70120F8E70120F6E700BF0020024054
:101C900000100240C4490008000000200800002095
:101CA000014B1868704700BF0000002008B5FFF71F
:101CB000F7FF044B5B68C3F30223034AD35CD840AD
:101CC00008BD00BF00100240D449000808B5FFF766
:101CD000E7FF044B5B68C3F3C223034AD35CD840DD
:101CE00008BD00BF00100240D449000870B582B0A2
:101CF0000446036813F0010F36D03F4BDB6913F045
:101D0000805F49D13C4BDA6942F08052DA61DB698D
:101D100003F080530193019B0125384B1B6813F49A
:101D2000807F3BD0344B1B6A13F4407313D062683E
:101D300002F440729A420ED02F4A136A23F4407084
:101D40002F490126C1F840640026C1F840641062A2
:101D500013F0010F36D1284A136A23F440736168E7
:101D60000B431362002D3ED1236813F0020F06D0FF
:101D7000214A536823F44043A1680B43536023680E
:101D800013F0100F34D01C4A536823F48003E16829
:101D90000B43536000202CE00025BEE7174A136870
:101DA00043F480731360FEF7C3FF0646134B1B68B2
:101DB00013F4807FB6D1FEF7BBFF801B6428F5D9F2
:101DC000032016E0FEF7B4FF06460B4B1B6A13F028
:101DD000020FC0D1FEF7ACFF801B41F2883398425E
:101DE000F3D9032005E0D36923F08053D361BBE727
:101DF000002002B070BD00BF001002400070004023
:101E00000000424270B4036A23F001030362036AD4
:101E10004668826922F073020C6844EA020523F0E6
:101E200002028B6813430D4CA04209D00B4CA04218
:101E30000DD0466085614A684263036270BC70479A
:101E400023F00803CA68134323F00403EEE726F4E3
:101E500040764A6932438E691643EAE7002C014016
:101E600030B4036A23F480730362036A4568C2696D
:101E700022F073020C68224323F400738C6843EA57
:101E800004230F4CA04209D00D4CA0420ED0456057
:101E9000C2614A68C263036230BC704723F40063C6
:101EA000CC6843EA042323F48063EDE725F440552E
:101EB0004C6945EA04158C6945EA0415E7E700BF5B
:101EC000002C014030B4036A23F480530362036A98
:101ED0004468C26922F4E6420D6842EA052223F40E
:101EE00000538D6843EA0533074DA84206D044608D
:101EF000C2614A680264036230BC704724F48044C3
:101F00004D6944EA8514F2E7002C014070477047A0
:101F100070477047704710B5044603681A6912F09D
:101F2000020F11D0DA6812F0020F0DD06FF002022A
:101F30001A610123037703689B6913F0030F70D0C4
:101F4000FFF7E6FF0023237723681A6912F0040FD6
:101F500012D0DA6812F0040F0ED06FF004021A618A
:101F60000223237723689B6913F4407F5FD02046C8
:101F7000FFF7CEFF0023237723681A6912F0080FBA
:101F800012D0DA6812F0080F0ED06FF008021A6152
:101F9000042323772368DB6913F0030F4ED0204618
:101FA000FFF7B6FF0023237723681A6912F0100F9A
:101FB00012D0DA6812F0100F0ED06FF010021A6112
:101FC000082323772368DB6913F4407F3DD0204644
:101FD000FFF79EFF0023237723681A6912F0010F91
:101FE00003D0DA6812F0010F36D123681A6912F0B3
:101FF000800F03D0DA6812F0800F34D123681A6999
:1020000012F0400F03D0DA6812F0400F32D123688B
:102010001A6912F0200F03D0DA6812F0200F30D1C5
:1020200010BDFFF774FF2046FFF773FF8AE72046D5
:10203000FFF76DFF2046FFF76CFF9BE72046FFF799
:1020400066FF2046FFF765FFACE72046FFF75FFF1E
:102050002046FFF75EFFBDE76FF001021A612046E0
:10206000FFF754FFC1E76FF080021A61204600F0CD
:1020700046F9C3E76FF040021A612046FFF74AFFB6
:10208000C5E76FF020021A61204600F037F9C7E774
:1020900003681B4A90420AD0B0F1804F07D0A2F5E6
:1020A0009432904203D002F58062904203D123F033
:1020B00070034A681343124A90420AD0B0F1804F2D
:1020C00007D0A2F59432904203D002F5806290428C
:1020D00003D123F44073CA68134323F080034A6991
:1020E000134303608B68C3620B688362044B98429E
:1020F00002D00123436170470B690363F9E700BF16
:10210000002C014040B310B5044690F83D30F3B1C7
:10211000022384F83D30214651F8040BFFF7B8FF45
:10212000012384F8463084F83E3084F83F3084F848
:10213000403084F8413084F8423084F8433084F8E9
:10214000443084F8453084F83D30002010BD80F8DC
:102150003C30FEF78BFDDBE70120704730B4036AAB
:1021600023F010030362036A4468826922F4E642A2
:102170000D6842EA052223F020038D6843EA051327
:102180000E4DA84209D00D4DA8420ED04460826188
:102190004A688263036230BC704723F08003CD68D5
:1021A00043EA051323F04003EDE724F440644D694E
:1021B00044EA85048D6944EA8504E7E7002C014080
:1021C00038B590F83C30012B60D004460D46012311
:1021D00080F83C300C2A1AD8DFE802F007191919E8
:1021E0001D1919193119191944000068FFF70AFE61
:1021F0002268936943F0080393612268936923F08E
:10220000040393612268936929690B439361002059
:1022100084F83C0038BD0068FFF7A0FF226893698E
:1022200043F4006393612268936923F480639361AC
:1022300022689369296943EA01239361E7E700680B
:10224000FFF70EFE2268D36943F00803D3612268CA
:10225000D36923F00403D3612268D36929690B434E
:10226000D361D4E70068FFF72DFE2268D36943F4F9
:102270000063D3612268D36923F48063D361226849
:10228000D369296943EA0123D361C0E70220C1E78A
:1022900090F83C30012B2CD010B4012380F83C3056
:1022A000022380F83D3003685A689C6822F0700C65
:1022B0000A6842EA0C025A6003680F4A93420AD045
:1022C000B3F1804F07D0A2F59432934203D002F5C8
:1022D0008062934204D124F080044A6814439C60D5
:1022E000012380F83D30002380F83C30184610BCB4
:1022F00070470220704700BF002C014070477047B4
:102300000268D36823F49073D3600268536923F0A2
:1023100001035361036B012B05D0202380F83E306D
:102320000023036370470268D36823F01003D3606F
:10233000F3E790F83D30DBB2212B01D0022070474B
:102340008368B3F5805F17D0036A5A1C02621A785B
:1023500003685A60C38C9BB2013B9BB2C3844BB9E8
:102360000268D36823F08003D3600268D36843F027
:102370004003D360002070470369002BE4D1036A57
:102380001B880268C3F308035360036A02330362C5
:10239000E0E7000010B504460268136923F44053D7
:1023A000C1680B43136183680269134342691A438E
:1023B0000168CB6823F4B05323F00C031343CB60C4
:1023C0000268536923F4407381690B4353610268C7
:1023D000134B9A4220D0FFF769FC024602EB8202BF
:1023E00002EB820263689B00B2FBF3F20D48A0FB94
:1023F00002314909642303FB11231B013233A0FB83
:1024000003235B0903F0F00202EB011203F00F0358
:10241000216813448B6010BDFFF758FC0246DDE7CE
:10242000003801401F85EB512DE9F84305460F4662
:1024300016469946DDF820802C68246837EA0403A4
:102440000CBF4FF0010C4FF0000CB4451FD1B8F198
:10245000FF3FF1D0B8F1000F05D0FEF769FCA0EB0B
:1024600009004045E8D92A68D36823F4D073D360C3
:102470002A68536923F001035361202385F83D3016
:1024800085F83E30002385F83C30032000E0002032
:10249000BDE8F88358B310B5044690F83D300BB34F
:1024A000242384F83D302268D36823F40053D3609A
:1024B0002046FFF76FFF2268136923F490431361EE
:1024C0002268536923F02A0353612268D36843F4D6
:1024D0000053D36000202064202384F83D3084F82A
:1024E0003E3010BD80F83C30FDF7E8FED8E7012013
:1024F00070472DE9F04182B01E4690F83D30DBB2C6
:10250000202B54D104460D469046002953D0002A72
:1025100053D090F83C30012B51D0012380F83C304F
:1025200000230364212380F83D30FEF701FC0746B9
:10253000A4F82480A4F82680A368B3F5805F05D0B2
:102540004FF00008002384F83C3012E0236913B1F7
:102550004FF00008F6E7A8460025F3E738F8023BFD
:102560002268C3F308035360E28C92B2013A92B23C
:10257000E284E38C9BB273B100963B46002280213B
:102580002046FFF751FFE0B9002DE7D015F8012BE9
:1025900023685A60E8E700963B4600224021204627
:1025A000FFF742FF78B9202384F83D3000E0022095
:1025B00002B0BDE8F0810120FAE70120F8E702202F
:1025C000F6E70320F4E70320F2E72DE9F04182B0BB
:1025D0001E4690F83E30DBB2202B5CD104460D46FF
:1025E000904600295BD0002A5BD090F83C30012B4C
:1025F00059D0012380F83C3000230364222280F864
:102600003E200363FEF794FB0746A4F82C80A4F851
:102610002E80A368B3F5805F05D04FF0000800233B
:1026200084F83C3017E0236913B14FF00008F6E757
:10263000A8460025F3E723685B68C3F3080328F87E
:10264000023B03E023685B682B700135E28D92B298
:10265000013A92B2E285E38D9BB2BBB100963B4654
:10266000002220212046FFF7DFFEF0B9002DE2D046
:10267000A368B3F5805FE5D013B92369002BE1D0DF
:1026800023685B6803F07F032B70DEE7202384F868
:102690003E30002000E0022002B0BDE8F0810120C1
:1026A000FAE70120F8E70220F6E70320F4E7704795
:1026B00008B50168CA6822F04002CA60202280F88A
:1026C0003D20FFF7F4FF002008BD704708B5406AC1
:1026D0000023C385C384FFF7F8FF08BD704790F857
:1026E0003E30DBB2222B60D18368B3F5805F46D0E9
:1026F000826AB3F5805F04D0002B4DD10369002BB3
:102700004AD103685B681370836A01338362C38DA7
:102710009BB2013B9BB2C385002B48D100B583B06F
:102720000268D36823F02003D3600268D36823F4DF
:102730008073D3600268536923F00103536120233F
:1027400080F83E30036B012B2CD100230363026819
:10275000D36823F01003D36003681A6812F0100FD7
:1027600006D0002201921A6801925B680193019BD6
:10277000818DFFF7B3FF002003B05DF804FB026911
:10278000002AB5D1826A03685B68C3F3080313802B
:10279000836A02338362BAE703685B6803F07F03EE
:1027A0001370B1E7FDF746FEE5E702207047002011
:1027B0007047000030B583B0044602681368D068E3
:1027C000516913F00F0505D113F0200F02D010F05E
:1027D000200F19D12DB111F0010119D110F4907F02
:1027E00016D1216B012975D013F0800F03D010F0A2
:1027F000800F40F0D78013F0400F03D010F0400F4F
:1028000040F0D48003B030BD2046FFF768FFF9E701
:1028100013F0010F06D010F4807F03D0226C42F039
:102820000102226413F0040F04D019B1226C42F0AB
:102830000202226413F0020F04D019B1226C42F09C
:102840000402226413F0080F07D010F0200F00D10B
:1028500019B1226C42F008022264226C002AD1D005
:1028600013F0200F02D010F0200F21D123685B69F4
:1028700003F04003226C12F0080F00D123B320466E
:10288000FFF73EFD23685A6912F0400F18D05A69CD
:1028900022F040025A61A36B73B1464A5A63A06B9F
:1028A000FEF7ECFC0028ADD0A06B436B9847A9E77E
:1028B0002046FFF714FFD9E72046FFF706FFA1E700
:1028C0002046FFF702FF9DE72046FFF7FEFE0023AC
:1028D000236497E713F0100F86D010F0100F83D009
:1028E000002301931368019353680193019B53697B
:1028F00013F0400F32D0A16B0B685B689BB2002BCA
:1029000080D0A08D98427FF67DAFE3858B69202B28
:1029100008D1A18DE38D9BB2C91A89B22046FFF779
:10292000DDFE6FE7D36823F48073D36022685369B8
:1029300023F0010353612268536923F0400353617C
:10294000202384F83E30002323632268D36823F0D9
:102950001003D360A06BFEF76FFCDAE7A18DE38D67
:102960009BB2C91A89B2E38D9BB2002B3FF44AAFE8
:1029700000293FF447AFD36823F49073D3602268F3
:10298000536923F001035361202384F83E30002370
:1029900023632268D36823F01003D3602046FFF737
:1029A0009DFE2FE72046FFF7C4FC2BE72046FFF7EC
:1029B0007FFE27E7CD26000890F83D3090F83E00D6
:1029C00018437047034681628285C28500201864DF
:1029D000222283F83E2083F83C001968CA6842F43A
:1029E0008072CA6019684A6942F001024A611A6835
:1029F000D36843F02003D360704708B590F83E30A9
:102A0000DBB2202B0DD171B17AB190F83C30012BA3
:102A10000DD0012380F83C3000230363FFF7D2FF81
:102A200000E0022008BD0120FCE70120FAE70220B7
:102A3000F8E7842801D0033070470020704708B5BC
:102A400000F0CCFC002008BD2DE9F04387B004461F
:102A50000F464569BDB18669AEB1D0F80480D0F8A3
:102A60000090B0F90800FFF7E4FF0296019500908E
:102A70003B4622694946404600F042FC05900598D5
:102A800007B0BDE8F08365682668D4F81080B4F913
:102A90000800FFF7CEFF05AB019300903B461FFAFD
:102AA00088F23146284600F065FC0128E7D0002076
:102AB000E6E708B500B9012000F0DAFD002008BD06
:102AC00000F1080343604FF0FF328260C36003618E
:102AD00000230360704700230361704743684B6025
:102AE0009A688A60516099600861036801330360E5
:102AF000704730B40D68B5F1FF3F11D000F1080305
:102B00001C465B681A68AA42FAD963684B609960F0
:102B10008C606160086103680133036030BC7047FA
:102B20000469F2E70369416882688A60416851601C
:102B30005A68824206D0002202611A68013A1A607D
:102B40001868704782685A60F5E7000082B0002379
:102B500001930D4B1B68B3F1FF3F08D04FF05003BA
:102B600083F31188BFF36F8FBFF34F8FFEE74FF0F2
:102B7000500383F31188BFF36F8FBFF34F8F019B17
:102B8000002BFCD002B070470C0000200648006803
:102B9000006880F3088862B661B6BFF34F8FBFF359
:102BA0006F8F00DF00BF000008ED00E04FF0807382
:102BB00040F8043C21F0010140F8081C034B40F8A8
:102BC0000C3C40F8202C4038704700BF4D2B0008CB
:102BD000074B19680868B0E8F00F80F30988BFF365
:102BE0006F8F4FF0000080F311884EF00D0E70478C
:102BF000E81900204FF0500383F31188BFF36F8F63
:102C0000BFF34F8F0B4A136801331360012B00D0C1
:102C100070474FF0E023D3F8043D13F0FF0FF7D0D7
:102C20004FF0500383F31188BFF36F8FBFF34F8FC3
:102C3000FEE700BF0C000020094B1B6843B94FF0B2
:102C4000500383F31188BFF36F8FBFF34F8FFEE7FD
:102C5000013B034A13600BB983F31188704700BF2F
:102C60000C00002000000000000000000000000038
:102C7000EFF30980BFF36F8F0D4B1A6820E9F00F57
:102C800010602DE908404FF0500080F3118800F0EB
:102C900015FD4FF0000080F31188BDE80840196869
:102CA0000868B0E8F00F80F30988BFF36F8F7047B2
:102CB000E819002008B54FF0500383F31188BFF3E3
:102CC0006F8FBFF34F8F00F0CBFB28B14FF0E023A5
:102CD0004FF08052C3F8042D002383F3118808BD00
:102CE0004FF0E022002313619361054B1B680549F7
:102CF000A1FB03139B09013B536107231361704739
:102D000000000020D34D621010B582B02A4B1A7813
:102D1000D2B20192FF221A701B78DBB28DF8033019
:102D20009DF8033003F05003244A1370244B07220C
:102D30001A6009E0224A1368013B13609DF80330D2
:102D40005B00DBB28DF803309DF8033013F0800F89
:102D5000F0D11B4B1B68032B08D04FF0500383F3BB
:102D60001188BFF36F8FBFF34F8FFEE71B02144A2A
:102D7000136003F4E0631360019BDBB20E4A13702F
:102D80004FF0E023D3F8202D42F47002C3F8202D39
:102D9000D3F8202D42F07042C3F8202DFFF7A0FF9A
:102DA0000024084B1C60FFF7F1FE00F087FCFFF7E2
:102DB000CDFE204602B010BD00E400E0C80D0020AA
:102DC000CC0D00200C000020124A12F0070F1ED07C
:102DD000D11D21F00701C1F5406313440A460E4896
:102DE0000260002141601344083B23F007030B48B5
:102DF000036059601960991A51601360084B19609B
:102E0000084B1960084B4FF000421A6070474FF4AE
:102E10004063E4E7D40D0020E0190020D00D00202D
:102E2000DC190020D8190020D4190020154B1A46AF
:102E30001B688342FBD3516802EB010C844509D027
:102E4000416800EB010C634509D00360904218D043
:102E5000106070474068014451601046F0E710B4BC
:102E6000094C2468A3420AD05B6819444160136886
:102E70001B680360904200D0106010BC7047046073
:102E8000F8E77047E0190020D00D002070B5054626
:102E900000F0DEFA344B1B68A3B1344B1B681D42B3
:102EA0004AD135B1083515F0070F02D025F00705D6
:102EB0000835002D42D02E4B1B68AB424DD32D4A16
:102EC000146804E0FFF780FFE7E722461C466368CA
:102ED000AB4202D22368002BF7D1234B1B68A342DD
:102EE0003DD0166808362368136063685B1B102B9F
:102EF00010D9601910F0070F08D04FF0500383F37A
:102F00001188BFF36F8FBFF34F8FFEE7436065609B
:102F1000FFF78CFF626816490B689B1A0B60164915
:102F200009688B4201D214490B60104B1B68134394
:102F300063600023236002E0002600E0002600F02A
:102F40001BFB16F0070F0CD04FF0500383F31188D2
:102F5000BFF36F8FBFF34F8FFEE70026EFE700262A
:102F6000EDE7304670BD00BFD00D0020D419002021
:102F7000D8190020E0190020DC19002080B338B5F2
:102F80000446A0F1080550F8043C164A12681342A2
:102F900008D14FF0500383F31188BFF36F8FBFF355
:102FA0004F8FFEE750F8081C41B14FF0500383F3F8
:102FB0001188BFF36F8FBFF34F8FFEE723EA020341
:102FC00040F8043C00F044FA54F8041C064A136824
:102FD0000B4413602846FFF729FF00F0CDFA38BDF7
:102FE000704700BFD4190020D8190020084B1B6877
:102FF0001B6823B9074B4FF0FF321A607047044B30
:103000001B68DB68DB685A68024B1A60704700BFB8
:10301000EC190020C41A00202DE9F0470746984615
:10302000089DDDF824900A9C266B02F18042013A4B
:1030300006EB820626F007064FF0000CBCF10F0FDE
:103040000BD811F80C2004EB0C0383F8342011F892
:103050000C3013B10CF1010CF0E7002384F843307D
:10306000062D00D90625E56265644FF0000AC4F814
:1030700048A0201DFFF72FFD04F11800FFF72BFDDE
:103080002461C5F10705A5616462C4F84CA084F809
:1030900050A0424639463046FFF788FD2060B9F11E
:1030A000000F01D0C9F80040BDE8F08738B5002412
:1030B00007E004EB840293000E481844FFF700FD7C
:1030C0000134062CF5D90C4D2846FFF7F9FC0B4CC2
:1030D0002046FFF7F5FC0A48FFF7F2FC0948FFF726
:1030E000EFFC0948FFF7ECFC084B1D60084B1C6027
:1030F00038BD00BFF4190020981A0020AC1A002037
:10310000CC1A0020F81A0020E41A0020EC19002044
:10311000F019002010B50446FFF76CFD214A136832
:1031200001331360204B1B685BB1204B1B686BB9EC
:103130001D4B1B68DA6AE36A9A4207D81A4B1C6077
:1031400004E0194B1C601368012B28D0184A13683F
:1031500001331360E06A01238340164A11680B4370
:10316000136000EB8000211D134B03EB8000FFF781
:10317000B5FCFFF761FD0D4B1B687BB10A4B1B686B
:10318000DA6AE36A9A4209D24FF0E0234FF08052A4
:10319000C3F8042DBFF34F8FBFF36F8F10BDFFF740
:1031A00085FFD3E7801A0020E8190020E01A0020EC
:1031B000901A0020941A0020F419002010B504463B
:1031C00090F8513063B1012B11D0022B0ED04FF08B
:1031D000500383F31188BFF36F8FBFF34F8FFEE768
:1031E000006BFFF7CBFE2046FFF7C8FE10BDFFF7D0
:1031F000C5FEFBE70F4B1B68D3B110B5FFF7FAFC18
:103200000D4BDB68DC68201DFFF78CFC0B4A136854
:10321000013B1360074A1368013B1360FFF70CFD85
:103220002046FFF7CBFF034B1B68002BE6D110BDF8
:10323000704700BF841A0020F81A0020801A00206E
:1032400008B5FFF7D7FF074B1B68012BF9D94FF0E3
:10325000E0234FF08052C3F8042DBFF34F8FBFF32C
:103260006F8FEEE7F419002070B504460D461D4B34
:103270001E681D4B18680430FFF754FC50B91A4BF8
:103280001B68DA6A012303FA02F218490B6823EA81
:1032900002030B60B4F1FF3F0DD03444124B1B68A6
:1032A0005C60A64210D9124B18680F4B19680431A4
:1032B000FFF71FFC70BD002DEFD00B4B19680431D8
:1032C0000C48FFF70BFCF5E70B4B1868064B196829
:1032D0000431FFF70EFC094B1B68A342EAD9074BE8
:1032E0001C60E7E70C1B0020E8190020941A00205E
:1032F000F0190020E41A0020EC190020C41A002064
:1033000030B587B00B9C7CB10C9DB5B154250495AC
:10331000049D542D1AD04FF0500383F31188BFF34E
:103320006F8FBFF34F8FFEE74FF0500383F3118889
:10333000BFF36F8FBFF34F8FFEE74FF0500383F360
:103340001188BFF36F8FBFF34F8FFEE70C9D2C6387
:10335000022485F8514000240394029505AC0194A1
:103360000A9C0094FFF758FE0C98FFF7D3FE0598CF
:1033700007B030BD2DE9F04385B0074688461446B6
:103380001E469000FFF782FD00B381465420FFF7F0
:103390007DFD0546B0B1C0F83090E5B1002385F859
:1033A0005130039302950D9B01930C9B0093334680
:1033B000224641463846FFF72FFE2846FFF7AAFE71
:1033C000012005E04846FFF7D9FDE6E74FF0FF3062
:1033D00005B0BDE8F0834FF0FF30F9E710B588B0D5
:1033E00000240594069407AA06A905A8FDF72EFA5D
:1033F000059B0293069B019300942346079A0E496E
:103400000E48FFF77DFF0E4B186090B14FF0500350
:1034100083F31188BFF36F8FBFF34F8F094B4FF0CA
:10342000FF321A60084B01221A60084B1C60FFF73C
:103430006BFC08B010BD00BFF04900084132000825
:10344000C01A0020C41A0020E01A00200C1B002023
:10345000024A136801331360704700BF8C1A0020C2
:10346000F8B53A4B1B68002B64D1394B1D68013508
:103470001D60C5B9374B1B681B6843B14FF0500343
:1034800083F31188BFF36F8FBFF34F8FFEE7314A8D
:103490001168314B186810601960304A13680133A5
:1034A0001360FFF7A3FD2E4B1B68AB4238D90027F2
:1034B0002C4B1B68DB6A03EB83039A002A4B9B5857
:1034C000012B3CD901273AE00127224B1B681B68DE
:1034D00043B3204B1B68DB68DC6863689D4226D3DE
:1034E000261D3046FFF71EFBA36A1BB104F118002E
:1034F000FFF718FBE36A01229A401C49086802435F
:103500000A6003EB83039A00314617481044FFF723
:10351000E5FAE26A134B1B68DB6A9A42D4D2D4E71D
:103520000027D2E70E4B4FF0FF321A60C0E70C4A7B
:103530001360BDE70E4A13680133136000270D4B7B
:103540001B6803B101273846F8BD00BF8C1A002064
:103550000C1B0020EC190020F0190020C81A0020D4
:10356000C41A0020E8190020F4190020941A002041
:10357000881A0020101B002038B5354B1B6843B952
:103580004FF0500383F31188BFF36F8FBFF34F8F5A
:10359000FEE7FFF72FFB2E4B1A68013A1A601B68F3
:1035A000002B4FD12B4B1B680BB900244BE00024A0
:1035B000294B1B681BB3284BDB68DC6804F118003F
:1035C000FFF7B0FA251D2846FFF7ACFAE06A0123A1
:1035D0008340224A11680B43136000EB80002946A8
:1035E0001F4B03EB8000FFF779FAE26A1D4B1B6863
:1035F000DB6A9A42DCD31C4B01221A60D8E70CB17B
:10360000FFF7F4FC194B1C6884B9174B1C68D4B144
:103610004FF0E0234FF08052C3F8042DBFF34F8FDB
:10362000BFF36F8F01240EE0013C07D0FFF718FFB6
:103630000028F9D00C4B01221A60F5E70B4B002251
:103640001A60E2E70024FFF7F7FA204638BD00BF12
:103650008C1A0020801A0020CC1A0020941A002016
:10366000F4190020E8190020101B0020881A0020FF
:1036700010B5A8B10446104B1B6843B14FF050037E
:1036800083F31188BFF36F8FBFF34F8FFEE7FFF710
:10369000DFFE00212046FFF7E7FDFFF76DFF48B989
:1036A0004FF0E0234FF08052C3F8042DBFF34F8F4B
:1036B000BFF36F8F10BD00BF8C1A0020204B1B681A
:1036C0001BB1204B01221A6070471E4B00221A606A
:1036D0001D4B1B68B3FA83F3DBB2C3F11F0303EB8B
:1036E00083018A0019498A5842B94FF0500383F385
:1036F0001188BFF36F8FBFF34F8FFEE7134903EBC2
:10370000830082000A4450684068506003EB830CD9
:103710004FEA8C0208321144884209D003EB83033C
:103720009A000A4B13445B68DA68094B1A607047C9
:10373000406862469100054A0A445060EEE700BFC7
:103740008C1A0020101B0020941A0020F41900206D
:10375000E8190020054B1B6833B1054B1B680BB102
:10376000002070470220704701207047E01A0020B7
:103770008C1A00200C480D490D4A002302E0D45851
:10378000C4500433C4188C42F9D30A4A0A4C0023AB
:1037900001E013600432A242FBD3FDF725FA00F0EA
:1037A00015F8FDF733F97047000000205408002099
:1037B000084A0008540800205C1B0020FEE70000B7
:1037C000014B1868704700BF1000002070B50D4E07
:1037D0000D4D761BB61006D0002455F8043B01347D
:1037E0009847A642F9D1094E094D01F093F8761B8E
:1037F000B61006D0002455F8043B01349847A64281
:10380000F9D170BDFC490008FC490008044A0008D1
:10381000FC490008830730B548D0541E002A3FD029
:103820000346CAB201E0013C3AD303F8012B9D07DD
:10383000F9D1032C2DD9CDB245EA05250F2C45EA47
:10384000054536D9A4F1100222F00F0C03F1200E29
:10385000E6444FEA121C03F1100242E9045542E922
:10386000025510327245F8D10CF1010214F00C0F20
:1038700003EB021204F00F0C13D0ACF1040323F09D
:1038800003030433134442F8045B9342FBD10CF06E
:1038900003042CB1CAB21C4403F8012B9C42FBD197
:1038A00030BD64461346002CF4D1F9E703461446B4
:1038B000BFE71A46A446E0E72DE9F043694C0E46FF
:1038C000D4F80080174604461D4683B0B8F1000FB7
:1038D00003D0D8F83830002B77D0022F05D0012F35
:1038E00000F2AC80002DC0F2A980636EDA0752D5D9
:1038F0002146404600F05AF9216B41B104F14003E2
:10390000994202D0404600F07DFA00232363002351
:10391000B4F90CC0A3611CF0800F636064D12CF477
:103920004A6C2CF0030C022FA4F80CC06AD001AB37
:10393000214640466A4600F091FBA3891843A081C6
:10394000002D2FD0002E2ED0D8F83830002B38D0B4
:10395000009BC4E90465AB42B4F90C3026601CBF7F
:1039600043F40063A381012F04BF43F00103A3814B
:103970009AB213F008032CD0D1075DD500216D4217
:10398000A561656EA16015F0010527D000252846C8
:1039900003B0BDE8F083A3899B05A9D4A06D00F016
:1039A00059FBA5E7009D284600F088FB0646002845
:1039B00047D0A38943F08003A381D8F83830002B87
:1039C000C6D1404600F026F9C2E7404600F022F991
:1039D00083E7A360656E15F00105D7D1930524D563
:1039E000284603B0BDE8F0834046216900F00AFA9A
:1039F000B4F90CC0022F2CF44A6C2CF0030CA4F880
:103A00000CC094D100250021012204F1430323605E
:103A10002361636E4CF0020CD807A4F80CC0A160BF
:103A20006261DDD41CF4007FDAD1A06D00F014FBDC
:103A3000284603B0BDE8F083A560CBE74FF0FF3523
:103A4000CEE7DDF80090A94504D0484600F036FBEB
:103A5000064620B94FF0FF35B4F90CC0D3E74D4608
:103A6000A7E700BF10000020024B13B1024800F08E
:103A700005B8704700000000393D000800230146EA
:103A80001A46184600F048BEB1F90C20F8B50C46AD
:103A90001107074643D4636842F40062002BA281F9
:103AA0005BDDA56A002D56D000233E683B6093B2D3
:103AB00012F4805255D101233846E169A847421CCF
:103AC00065D0A389A56A5B0705D56368C01A236B17
:103AD0000BB1E36BC01A0246E16900233846A847E0
:103AE000411C40D13B68002B3DD01D2B01D0162B33
:103AF00054D10022A38923F40063A3812369C4E97C
:103B00000032216B3E6031B304F14003994202D090
:103B1000384600F077F9002318462363F8BD26697C
:103B2000CEB193B29A0718BF0023256808BF636916
:103B30002660AD1BA3600CE02B463246D4F824C0AF
:103B40003846E169E047B0F1000CA5EB0C0566448E
:103B500016DD002DF0DC0020F8BDE36B002BA0DCAF
:103B6000F9E7206DAFE70022B4F90C30626023F46E
:103B700000632269A381DB042260C2D52065C0E70F
:103B8000A3894FF0FF3043F04003A381F8BD3B68A9
:103B9000002B96D01D2B06D0162B04D0A38943F002
:103BA0004003A381F8BD00203E60F8BD38B505464E
:103BB0000C4608B1836BA3B1B4F90C00B8B1636EC5
:103BC000DB0701D4810515D528462146FFF75CFFA8
:103BD000636E0546DA0702D4A3899B050ED52846F5
:103BE00038BD00F017F8B4F90C000028E7D10546FD
:103BF000284638BDA06D00F02DFAE5E7A06D00F075
:103C00002BFA284638BD00BF014900F0FBB900BFC0
:103C1000C94700082DE9F0478246394800F01AFAF2
:103C2000DAF83840002C66D1042303223549DAF84B
:103C30000450CAF83C10DFF8D090DFF8D080344F41
:103C4000344E0AF53B71CAE9B921CAF8E04221466F
:103C5000EB600822C5E90044C5E904446C66AC6029
:103C6000AC6105F15C00FFF7D5FDC5E90759C5E971
:103C70000987EE6205F1580000F0E8F9DAF808501B
:103C8000254B2146EB600822C5E90044C5E9044400
:103C90006C66AC60AC6105F15C00FFF7BBFDC5E98B
:103CA0000759C5E90987EE6205F1580000F0CEF921
:103CB000DAF80C50194B2146EB600822C5E90044A4
:103CC000C5E904446C66AC60AC6105F15C00FFF7CB
:103CD000A1FD05F15800C5E90759C5E90A76C5F8FF
:103CE000248000F0B3F901230548CAF83830BDE854
:103CF000F04700F0B1B90248BDE8F04700F0ACB9B8
:103D0000201B0020093C0008614600088546000889
:103D1000C5460008E546000809000100120002003F
:103D2000014800F097B900BF1C1B0020014800F0BB
:103D300093B900BF1C1B002038B5084B084D5B1B16
:103D40009C1007D0043B1D44013C55F804399847AA
:103D5000002CF9D1BDE8384000F0E2BD084A000867
:103D6000044A0008F8B50C46234F064600F05AFCFA
:103D7000BB685D68C4F57E6325F003050F332B44F3
:103D800023F47F6323F00F03A3F58054B4F5805F21
:103D900007DB0021304600F051FCBB682B44984201
:103DA00004D0304600F044FC0020F8BD30466142AB
:103DB00000F044FC01300DD0104ABB682D1B45F0CB
:103DC00001055D60136830461B1B136000F030FC7A
:103DD0000120F8BD0021304600F030FCBA68831A9B
:103DE0000F2BDEDD43F001035360054B03491B68D5
:103DF000C01A0860D5E700BF44040020241B00203F
:103E00004C08002000295ED0F8B50C46064600F0AC
:103E100009FC54F8042C784FA4F1080522F00101A4
:103E20006818D7F808C04368844523F0030300F0FE
:103E30008780D207436034D454F8082C07F1080473
:103E4000AD1A1144AA68A24268D000EB030CDCF85A
:103E500004E0D5F80CC01EF0010FC2F80CC0CCF87D
:103E6000082000F0918041F001036B600160B1F522
:103E7000007F31D24A09CB08012191407A68013391
:103E80001143796007EBC30257F83310083AC5E9CC
:103E9000021247F83350CD603046BDE8F84000F0DC
:103EA000C7BBC2185268D2070ED4194407F10804E0
:103EB0008368A34270D0C268DA60936041F0010366
:103EC0006B606950D3E7704741F00103B1F5007FA3
:103ED00044F8043C0160CDD3B1F5206F4FEA512383
:103EE00047D28B0903F1390003F13802C300F818F7
:103EF000FB580838984258D05A6822F003028A4288
:103F000002D99B689842F7D1D868C5E9023085602C
:103F10003046DD60BDE8F84000F08ABBC218526848
:103F2000D20763D40B44D0E90212CA60916043F017
:103F300001026A603046EB50BDE8F84000F078BB03
:103F40000B44D10707D454F8082CAD1A1344D5E913
:103F50000212CA60916043F001026A60274ABD60A4
:103F600012689A4298D8264B30461968FFF7FAFE35
:103F700092E7142B0AD9542B1FD80B0B03F16F00B7
:103F800003F16E02C300B2E7194491E703F15C004C
:103F900003F15B02C300AAE741F00103C7E904553E
:103FA000C5E902446B60695076E70121921001FA7D
:103FB00002F279680A437A60A7E7B3F5AA7F06D8C8
:103FC000CB0B03F1780003F17702C3008FE740F2D7
:103FD0005452934206D88B0C03F17D0003F17C020E
:103FE000C30084E74FF47E737E2280E741F0010333
:103FF0006B60016050E700BF4404002050080020BF
:10400000541B00202DE9F8434FF00009074688466D
:1040100000F53876D6E90154013D10D4A389013D5D
:10402000012B08D9B4F90E30013304D021463846AB
:10403000C04749EA00096B1C04F16804EED13668F8
:10404000002EE7D14846BDE8F88300BF704700BFA7
:10405000704700BF704700BF704700BF70B50C4687
:10406000B1F90E10154600291E4696B014DB6A46BB
:1040700000F010FC00280FDB019A4FF4806302F47B
:104080007042A2F50052B2FA82F24FF40060520977
:1040900032602B6016B070BD0023B4F90C10336091
:1040A00011F0800004D0402218462A6016B070BD7E
:1040B0004FF480632B6016B070BD00BF024B014609
:1040C000186800F003B800BF100000202DE9F04F81
:1040D00001F10B05162D064683B025D8102900F2F4
:1040E000B88000F09FFA102518224FF0020CB54F4F
:1040F0003A445368A2F108018B4200F0B7805A6835
:10410000D96822F003021A449C683046E1608C6052
:10411000516803F1080441F00101516000F088FA90
:10412000204603B0BDE8F08F35F0070500F191801F
:10413000A94200F28E8000F075FAB5F5FC7FC0F060
:1041400094816B0A00F08C80042B00F26A81AB0929
:1041500003F1390C03F138044FEACC00994F38448D
:1041600043680838984206D10CE0002980F2268185
:10417000DB68984206D05A6822F00302511B0F29CF
:10418000F3DDA4463C69DFF840E274457AD062680A
:1041900022F00302531B0F2B00F37681002BC7E99B
:1041A00004EE80F26781B2F5007F80F01981012171
:1041B000D30852090B4491407A6857F833000A43F8
:1041C00007EBC3010839A060E1607A6047F833402B
:1041D000C46001214FEAAC039940914259D8114281
:1041E00006D12CF0030C490011420CF1040CFAD05A
:1041F00007EBCC0948466446D0F80C80404508D10E
:104200001CE1002B80F22181D8F80C80404500F0A1
:104210001581D8F8042022F00302531B0F2BF0DD88
:1042200008EB050145F00105C8F804503046D8E90F
:104230000264F460A66043F00104C7E904114C6015
:10424000C1E902EE48F8023000F0F2F908F1080482
:1042500002E00C2300243360204603B0BDE8F08F59
:104260004FF400704FF0400C3F2477E7D3689A4238
:1042700008BF0CF1020C7FF442AF3C69DFF848E163
:10428000744584D101217A684FEAAC039940914288
:10429000A5D9BC68636823F003094D4503D8A9EB91
:1042A00005030F2B7ADCDFF824B1494BDBF8002043
:1042B0001B6801322B4404EB090A00F02F8103F53F
:1042C00080530F3323F47F6828F00F0841463046AF
:1042D00000F0B4F9411C024600F0EF80824500F284
:1042E000EA803C4B196841440846196000F0498156
:1042F000DBF80010019301311BBFA2EB0A0A504406
:10430000CBF80020186012F0070B00F01181CBF100
:1043100008010A44CBF5805190440831A1EB080113
:10432000C1F30B0A51463046009200F087F9421C57
:10433000DDE9002300F04B81801A00EB0A081968C0
:1043400048F001005144BC42BA601960506000F06E
:104350002481B9F10F0F40F222814FF0050E606801
:10436000A9F10C0C2CF0070C00F0010040EA0C0045
:104370006060BCF10F0F04EB0C00C0E901EE00F22D
:104380002E8114465068144B1A688A4238BF19604F
:10439000124B1A688A4238BF196090E0621943F0E4
:1043A000010345F0010565603046BA60083453608A
:1043B00000F03EF9204603B0BDE8F08FD9681A44FA
:1043C000A2E600BF440400204C0400204C0800205A
:1043D000541B0020241B00204C1B0020501B0020DD
:1043E000B2F5206F4FEA52235FD3142B00F2B18055
:1043F00003F15C01C9005B337818795808388842AA
:1044000000F08F804B6823F00303934202D9896840
:104410008842F7D1C8687A68C4E902108460CC6029
:10442000D7E6142B59D9542B00F29B802B0B03F1A8
:104430006F0C03F16E044FEACC008FE60134A30742
:1044400000F108007FF4D8AE53E04446424453687C
:10445000D8F80C1043F00103536054F8083F30467D
:10446000D9608B6000F0E4F8F6E64FEAD50C05F170
:1044700008023CE622445368304643F0010353608F
:1044800000F0D6F80834E7E6611945F001056560EB
:1044900043F00105C7E904113046C1E902EE4D6061
:1044A000A35000F0C5F80834D6E6930903F13901AA
:1044B000C9003833A0E7BC425ED0BC68606820F019
:1044C00003084545A8EB050302D80F2B3FF766AF5D
:1044D000304600F0ADF80024BEE603F15C0C03F1B9
:1044E0005B044FEACC0039E659F808394B4540F0F7
:1044F00095801CF0030F0CF1FF3CF5D17B6823EA9B
:1045000001037B60490099423FF6C3AE11B9C0E692
:10451000490004341942FBD0A44669E603F11008AF
:10452000D4E601229B109A407B681A437A6073E7B5
:1045300002EB08014942C1F30B0A51463046009292
:1045400000F07CF8431CDDE900237FF4F5AEDA4689
:10455000F5E6542B26D8130B03F16F01C9006E3317
:104560004AE7B3F5AA7F26D8EB0B03F1780C03F1E9
:1045700077044FEACC00F1E5294B186840441860F5
:10458000B6E6CAF30B0CBCF1000F7FF4B1AEBC6809
:10459000C84448F001006060F5E61446F3E60123E4
:1045A000536095E7B3F5AA7F24D8D30B03F17801C4
:1045B000C900773320E740F25452934224D8AB0C21
:1045C00003F17D0C03F17C044FEACC00C6E5ABF1AE
:1045D000080BD8444FF0000AA8EB0208AFE604F13C
:1045E000080130460093FFF70DFCBC68009B606833
:1045F0001968C8E640F254518B420BD8930C03F172
:104600007D01C9007C33F7E64FF47E704FF07F0CDC
:104610007E24A3E54FF47E717E23EDE67B6871E78F
:10462000241B00200148FFF715BD00BF181B002008
:104630000148FFF711BD00BF181B0020002238B54C
:10464000064D044608462A60FCF7A6FA431C00D033
:1046500038BD2B68002BFBD0236038BD581B0020D1
:1046600010B50C46B1F90E1000F03EF9002803DB3E
:10467000236D0344236510BDA38923F48053A381D4
:1046800010BD00BF2DE9F0410C46B1F90C101F46DA
:10469000CB05054616460BD421F48051A1813B463B
:1046A00032462846B4F90E10BDE8F04100F01EB8BD
:1046B000B4F90E100223002200F000F9B4F90C1036
:1046C000EAE700BF10B50C46B1F90E1000F0F6F89D
:1046D000A389421C0EBF23F4805343F4805320650A
:1046E000A38110BDB1F90E1000F05CB838B50C46CE
:1046F000114600228446074D20462A601A46644629
:10470000FCF7B4F9431C00D038BD2B68002BFBD05C
:10471000236038BD581B00202DE9F047DFF87CA04E
:104720000646DAF8000098460F469146FFF792FCDD
:104730001B4B1B68D3F8484124B365681F2D26DC4A
:104740005EB96B1C0235DAF80000636044F825702E
:10475000FFF782FC0020BDE8F087012304EB850110
:10476000C1F88890D4F88821AB401A43022EC4F8CF
:104770008821C1F80881E4D1D4F88C211343C4F80E
:104780008C31DEE703F5A674C3F84841D5E7DAF8C3
:104790000000FFF761FC4FF0FF30DCE74004002031
:1047A000F8490008002238B5064D044608462A603C
:1047B000FCF710FA431C00D038BD2B68002BFBD04F
:1047C000236038BD581B002070B500294BD0064629
:1047D0000C4610B1836B002B48D0636ED80734D5DC
:1047E000B4F90C30002B3ED021463046FFF74CF98F
:1047F000E36A054633B13046E16998470028B8BFFF
:104800004FF0FF35A3891A063BD4216B41B104F167
:104810004003994202D03046FFF7F4FA00232363A5
:10482000616C21B13046FFF7EDFA00236364FFF7B6
:1048300077FA0022636EA281DB0727D5A06DFFF710
:1048400007FCFFF773FA284670BDA3899905CBD4FE
:10485000A06DFFF7FFFBB4F90C30002BC4D1656EDF
:1048600015F0010508D00025284670BDFFF7D2F9E4
:10487000636ED807B4D4E8E7A06DFFF7EDFB2846D8
:1048800070BD30462169FFF7BDFABEE7A06DFFF7A6
:10489000E3FBD3E770B50026074D044608461146F2
:1048A0002E60FCF79AF9431C00D070BD2B68002BDA
:1048B000FBD0236070BD00BF581B002038B50C46EC
:1048C000114600228446074D20462A601A46644657
:1048D000FCF788F9431C00D038BD2B68002BFBD0B7
:1048E000236038BD581B002038B50C461146002205
:1048F0008446074D20462A601A466446FCF7D0F8E5
:10490000431C00D038BD2B68002BFBD0236038BD82
:10491000581B0020F8B500BFF8BC08BC9E46704785
:0C492000F8B500BFF8BC08BC9E4670470C
:10492C009C490008FD070008FDFF00000000000086
:10493C00800000000000000000000000A8490008F2
:10494C001D080008FDFF00000000000080000000B2
:10495C000000000000000000B04900080708000833
:10496C0002000000000000008000000000000000B9
:10497C0000000000B849000811080008FDFF000005
:10498C00000000008000000000000000000000009B
:10499C0064656661756C745461736B006C6564540A
:1049AC0061736B006164635461736B007561727445
:1049BC0052785461736B000000000000000000008E
:1049CC0001020304060708090000000001020304A9
:1049DC0002030405060708090A0B0C0D0E0F101034
:1049EC000000000049444C45000000001800002065
:0849FC00693A000835010008CA
:044A04001101000894
:104A08000024F4000100000010000000AAAAAAAACD
:104A1800180000200000000000000000040300202F
:104A28006C030020D40300200000000000000000F8
:104A3800000000000000000000000000000000006E
:104A4800000000000000000000000000000000005E
:104A5800000000000000000000000000000000004E
:104A6800000000000000000000000000000000003E
:104A7800000000000000000000000000000000002E
:104A8800000000000000000000000000000000001E
:104A9800000000000000000000000000000000000E
:104AA80000000000000000000000000000000000FE
:104AB80000000000000000000000000000000000EE
:104AC80001000000000000000E33CDAB34126DE68B
:104AD800ECDE05000B0000000000000000000000F4
:104AE80000000000000000000000000000000000BE
:104AF80000000000000000000000000000000000AE
:104B0800000000000000000000000000000000009D
:104B1800000000000000000000000000000000008D
:104E4800141B0020000000000000000044040020A3
:104E5800440400204C0400204C040020540400208A
:104E6800540400205C0400205C040020640400203A
:104E7800640400206C0400206C04002074040020EA
:104E8800740400207C0400207C040020840400209A
:104E9800840400208C0400208C040020940400204A
:104EA800940400209C0400209C040020A4040020FA
:104EB800A4040020AC040020AC040020B4040020AA
:104EC800B4040020BC040020BC040020C40400205A
:104ED800C4040020CC040020CC040020D40400200A
:104EE800D4040020DC040020DC040020E4040020BA
:104EF800E4040020EC040020EC040020F40400206A
:104F0800F4040020FC040020FC0400200405002018
:104F1800040500200C0500200C05002014050020C5
:104F2800140500201C0500201C0500202405002075
:104F3800240500202C0500202C0500203405002025
:104F4800340500203C0500203C05002044050020D5
:104F5800440500204C0500204C0500205405002085
:104F6800540500205C0500205C0500206405002035
:104F7800640500206C0500206C05002074050020E5
:104F8800740500207C0500207C0500208405002095
:104F9800840500208C0500208C0500209405002045
:104FA800940500209C0500209C050020A4050020F5
:104FB800A4050020AC050020AC050020B4050020A5
:104FC800B4050020BC050020BC050020C405002055
:104FD800C4050020CC050020CC050020D405002005
:104FE800D4050020DC050020DC050020E4050020B5
:104FF800E4050020EC050020EC050020F405002065
:10500800F4050020FC050020FC0500200406002013
:10501800040600200C0600200C06002014060020C0
:10502800140600201C0600201C0600202406002070
:10503800240600202C0600202C0600203406002020
:10504800340600203C0600203C06002044060020D0
:10505800440600204C0600204C0600205406002080
:10506800540600205C0600205C0600206406002030
:10507800640600206C0600206C06002074060020E0
:10508800740600207C0600207C0600208406002090
:10509800840600208C0600208C0600209406002040
:1050A800940600209C0600209C060020A4060020F0
:1050B800A4060020AC060020AC060020B4060020A0
:1050C800B4060020BC060020BC060020C406002050
:1050D800C4060020CC060020CC060020D406002000
:1050E800D4060020DC060020DC060020E4060020B0
:1050F800E4060020EC060020EC060020F406002060
:10510800F4060020FC060020FC060020040700200E
:10511800040700200C0700200C07002014070020BB
:10512800140700201C0700201C070020240700206B
:10513800240700202C0700202C070020340700201B
:10514800340700203C0700203C07002044070020CB
:10515800440700204C0700204C070020540700207B
:10516800540700205C0700205C070020640700202B
:10517800640700206C0700206C07002074070020DB
:10518800740700207C0700207C070020840700208B
:10519800840700208C0700208C070020940700203B
:1051A800940700209C0700209C070020A4070020EB
:1051B800A4070020AC070020AC070020B40700209B
:1051C800B4070020BC070020BC070020C40700204B
:1051D800C4070020CC070020CC070020D4070020FB
:1051E800D4070020DC070020DC070020E4070020AB
:1051F800E4070020EC070020EC070020F40700205B
:10520800F4070020FC070020FC0700200408002009
:10521800040800200C0800200C08002014080020B6
:10522800140800201C0800201C0800202408002066
:10523800240800202C0800202C0800203408002016
:10524800340800203C0800203C080020FFFFFFFF36
:045258000000020050
:040000050800377543
:00000001FF
