:020000040800F2
:1000000000500020354300083D1700083F17000846
:1000100041170008431700084517000800000000BA
:10002000000000000000000000000000E1370008B0
:100030004717000800000000813800084917000831
:100040007D4300087D4300087D4300087D43000890
:100050007D4300087D4300087D4300087D43000880
:100060007D4300087D4300087D43000861170008B8
:100070007D4300087D4300087117000881170008C0
:100080007D4300087D430008911700087D43000868
:100090007D4300087D4300087D4300087D43000840
:1000A0007D4300087D4300087D4300087D43000830
:1000B000A11700087D4300087D4300087D43000828
:1000C0007D4300087D4300087D4300087D43000810
:1000D0007D4300086D110008991100087D43000858
:1000E0007D4300087D4300087D43000800000000B8
:1000F0000000000000000000000000000000000000
:0C01000000000000000000005FF808F1A3
:1001100010B5054C237833B9044B13B10448AFF341
:1001200000800123237010BDC009002000000000E2
:10013000ECA5000808B5034B1BB103490348AFF316
:10014000008008BD00000000C4090020ECA50008E4
:10015000844641EA000313F0030349D1403A23D314
:100160000B6803604B6843608B688360CB68C36037
:100170000B6903614B6943618B698361CB69C3611F
:100180000B6A03624B6A43628B6A8362CB6AC36207
:100190000B6B03634B6B43638B6B8363CB6BC363EF
:1001A00040304031403ADBD230320BD30B68036031
:1001B0004B6843608B688360CB68C360103010313C
:1001C000103AF3D20C3205D351F8043B40F8043B0B
:1001D000043AF9D2043208D0D2071CBF11F8013B0F
:1001E00000F8013B01D30B8803806046704700BFD5
:1001F000082A13D38B07B1D010F00303AED0C3F19C
:100200000403D21ADB071CBF11F8013B00F8013BC5
:10021000A4D331F8023B20F8023B9FE7043AD9D33C
:10022000013A11F8013B00F8013BF9D20B78037059
:100230004B7843708B7883706046704781F0004143
:1002400002E000BF83F0004330B54FEA41044FEABB
:10025000430594EA050F08BF90EA020F1FBF54EA56
:10026000000C55EA020C7FEA645C7FEA655C00F0F2
:10027000E2804FEA5454D4EB5555B8BF6D420CDDC3
:100280002C4480EA020281EA030382EA000083EA46
:10029000010180EA020281EA0303362D88BF30BDE6
:1002A00011F0004F4FEA01314FF4801C4CEA11313C
:1002B00002D0404261EB410113F0004F4FEA03339B
:1002C0004CEA133302D0524263EB430394EA050F26
:1002D00000F0A780A4F10104D5F1200E0DDB02FA95
:1002E0000EFC22FA05F2801841F1000103FA0EF229
:1002F000801843FA05F359410EE0A5F120050EF1EF
:10030000200E012A03FA0EFC28BF4CF0020C43FA1F
:1003100005F3C01851EBE37101F0004507D54FF02C
:10032000000EDCF1000C7EEB00006EEB0101B1F57C
:10033000801F1BD3B1F5001F0CD349085FEA3000C2
:100340004FEA3C0C04F101044FEA445212F5800FCD
:1003500080F09A80BCF1004F08BF5FEA500C50F16A
:10036000000041EB045141EA050130BD5FEA4C0C4D
:10037000404141EB0101013C28BFB1F5801FE9D2AA
:1003800091F0000F04BF01460020B1FA81F308BFCD
:100390002033A3F10B03B3F120020CDA0C3208DD99
:1003A00002F1140CC2F10C0201FA0CF021FA02F174
:1003B0000CE002F11402D8BFC2F1200C01FA02F1E4
:1003C00020FA0CFCDCBF41EA0C019040E41AA2BF09
:1003D00001EB0451294330BD6FEA04041F3C1CDAD1
:1003E0000C340EDC04F11404C4F1200220FA04F0F1
:1003F00001FA02F340EA030021FA04F345EA03019B
:1004000030BDC4F10C04C4F1200220FA02F001FA5C
:1004100004F340EA0300294630BD21FA04F02946DE
:1004200030BD94F0000F83F4801306BF81F4801177
:100430000134013D4EE77FEA645C18BF7FEA655CEA
:1004400029D094EA050F08BF90EA020F05D054EABC
:10045000000C04BF1946104630BD91EA030F1EBFC1
:100460000021002030BD5FEA545C05D140004941C5
:1004700028BF41F0004130BD14F580043CBF01F5B8
:10048000801130BD01F0004545F0FE4141F470019E
:100490004FF0000030BD7FEA645C1ABF1946104679
:1004A0007FEA655C1CBF0B46024650EA013406BF7A
:1004B00052EA033591EA030F41F4002130BD00BF39
:1004C00090F0000F04BF0021704730B54FF48064F6
:1004D00004F132044FF000054FF0000150E700BF77
:1004E00090F0000F04BF0021704730B54FF48064D6
:1004F00004F1320410F0004548BF40424FF00001C3
:100500003EE700BF42004FEAE2014FEA31014FEA05
:1005100002701FBF12F07F4393F07F4F81F0605154
:10052000704732F07F4208BF704793F07F4F04BF9F
:1005300041F40021704730B54FF4607401F000457C
:1005400021F000411CE700BF50EA010208BF7047DC
:1005500030B54FF000050AE050EA010208BF7047CD
:1005600030B511F0004502D5404261EB41014FF436
:10057000806404F132045FEA915C3FF4D8AE4FF03E
:1005800003025FEADC0C18BF03325FEADC0C18BF21
:10059000033202EBDC02C2F1200300FA03FC20FA72
:1005A00002F001FA03FE40EA0E0021FA02F11444BF
:1005B000BDE600BF70B54FF0FF0C4CF4E06C1CEAD8
:1005C00011541DBF1CEA135594EA0C0F95EA0C0F49
:1005D00000F0DEF82C4481EA030621EA4C5123EABC
:1005E0004C5350EA013518BF52EA033541F48011EB
:1005F00043F4801338D0A0FB02CE4FF00005E1FB9E
:1006000002E506F00042E0FB03E54FF00006E1FBE7
:1006100003569CF0000F18BF4EF0010EA4F1FF042A
:10062000B6F5007F64F5407404D25FEA4E0E6D416A
:1006300046EB060642EAC62141EA55514FEAC5207B
:1006400040EA5E504FEACE2EB4F1FD0C88BFBCF5F7
:10065000E06F1ED8BEF1004F08BF5FEA500E50F1A8
:10066000000041EB045170BD06F0004646EA01016E
:1006700040EA020081EA0301B4EB5C04C2BFD4EBA0
:100680000C0541EA045170BD41F480114FF0000E99
:10069000013C00F3AB8014F1360FDEBF002001F007
:1006A000004170BDC4F10004203C35DA0C341BDC81
:1006B00004F11404C4F1200500FA05F320FA04F053
:1006C00001FA05F240EA020001F0004221F0004187
:1006D00010EBD37021FA04F642EB06015EEA430EFA
:1006E00008BF20EAD37070BDC4F10C04C4F120052A
:1006F00000FA04F320FA05F001FA04F240EA0200DD
:1007000001F0004110EBD37041F100015EEA430EAD
:1007100008BF20EAD37070BDC4F1200500FA05F2CD
:100720004EEA020E20FA04F301FA05F243EA02034C
:1007300021FA04F001F0004121FA04F220EA02005B
:1007400000EBD3705EEA430E08BF20EAD37070BDA1
:1007500094F0000F0FD101F00046400041EB010181
:1007600011F4801F08BF013CF7D041EA060195F063
:10077000000F18BF704703F00046520043EB03031D
:1007800013F4801F08BF013DF7D043EA060370470A
:1007900094EA0C0F0CEA135518BF95EA0C0F0CD015
:1007A00050EA410618BF52EA4306D1D181EA03015B
:1007B00001F000414FF0000070BD50EA410606BF55
:1007C0001046194652EA430619D094EA0C0F02D19A
:1007D00050EA013613D195EA0C0F05D152EA0336DF
:1007E0001CBF104619460AD181EA030101F00041FD
:1007F00041F0FE4141F470014FF0000070BD41F046
:10080000FE4141F4780170BD70B54FF0FF0C4CF41F
:10081000E06C1CEA11541DBF1CEA135594EA0C0F3E
:1008200095EA0C0F00F0A7F8A4EB050481EA030E8B
:1008300052EA03354FEA013100F088804FEA033372
:100840004FF0805545EA131343EA12634FEA022240
:1008500045EA111545EA10654FEA00260EF0004101
:100860009D4208BF964244F1FD0404F5407402D253
:100870005B084FEA3202B61A65EB03055B084FEAE4
:1008800032024FF480104FF4002CB6EB020E75EBE1
:10089000030E22BFB61A754640EA0C005B084FEA09
:1008A0003202B6EB020E75EB030E22BFB61A754686
:1008B00040EA5C005B084FEA3202B6EB020E75EBD1
:1008C000030E22BFB61A754640EA9C005B084FEA49
:1008D0003202B6EB020E75EB030E22BFB61A754656
:1008E00040EADC0055EA060E18D04FEA051545EA45
:1008F00016754FEA06164FEAC30343EA52734FEAEE
:10090000C2025FEA1C1CC0D111F4801F0BD141EA66
:1009100000014FF000004FF0004CB6E711F4801FCB
:1009200004BF01430020B4F1FD0C88BFBCF5E06FAB
:100930003FF6AFAEB5EB030C04BFB6EB020C5FEABB
:10094000500C50F1000041EB045170BD0EF0004E10
:100950004EEA113114EB5C04C2BFD4EB0C0541EA42
:10096000045170BD41F480114FF0000E013C90E63F
:1009700045EA060E8DE60CEA135594EA0C0F08BF03
:1009800095EA0C0F3FF43BAF94EA0C0F0AD150EA02
:1009900001347FF434AF95EA0C0F7FF425AF104695
:1009A00019462CE795EA0C0F06D152EA03353FF4BD
:1009B000FDAE1046194622E750EA410618BF52EA3A
:1009C00043067FF4C5AE50EA41047FF40DAF52EA0E
:1009D00043057FF4EBAE12E74FF0FF3C06E000BFAB
:1009E0004FF0010C02E000BF4FF0010C4DF804CDB8
:1009F0004FEA410C7FEA6C5C4FEA430C18BF7FEA78
:100A00006C5C1BD001B050EA410C0CBF52EA430CA5
:100A100091EA030F02BF90EA020F0020704710F125
:100A2000000F91EA030F58BF994208BF90422CBFB4
:100A3000D8176FEAE37040F0010070474FEA410CAD
:100A40007FEA6C5C02D150EA013C07D14FEA430CCB
:100A50007FEA6C5CD6D152EA033CD3D05DF8040B3C
:100A6000704700BF8446104662468C46194663466E
:100A700000E000BF01B5FFF7B7FF002848BF10F145
:100A8000000F01BD4DF808EDFFF7F4FF0CBF01208A
:100A900000205DF808FB00BF4DF808EDFFF7EAFF06
:100AA00034BF012000205DF808FB00BF4DF808EDC1
:100AB000FFF7E0FF94BF012000205DF808FB00BFB6
:100AC0004DF808EDFFF7CEFF94BF012000205DF840
:100AD00008FB00BF4DF808EDFFF7C4FF34BF01204D
:100AE00000205DF808FB00BF4FEA410C7FEA6C5C18
:100AF00002D150EA013C0AD14FEA430C7FEA6C5C18
:100B000002D152EA033C02D14FF0000070474FF08F
:100B1000010070474FEA410212F5001215D211D5BB
:100B20006FF47873B3EB625212D94FEAC12343F0EA
:100B3000004343EA505311F0004F23FA02F018BF6C
:100B4000404270474FF00000704750EA013005D135
:100B500011F0004008BF6FF0004070474FF00000F8
:100B6000704700BF53B94AB9002908BF00281CBF0D
:100B70004FF0FF314FF0FF3000F076B9ADF1080CC7
:100B80006DE904CE00F006F8DDF804E0DDE90223AB
:100B900004B070472DE9F047089E0D46044688468C
:100BA000002B4DD18A42944668D9B2FA82F252B1F2
:100BB00001FA02F3C2F1200120FA01F10CFA02FC61
:100BC00041EA030894404FEA1C41B8FBF1F71FFAD1
:100BD0008CFE01FB178807FB0EF0230C43EA084349
:100BE00098420AD91CEB030307F1FF3580F01E8100
:100BF000984240F21B81023F63441B1AB3FBF1F0A1
:100C000001FB103300FB0EFEA4B244EA0344A645E8
:100C10000AD91CEB040400F1FF3380F00981A645DA
:100C200040F20681644402380021A4EB0E0440EA3D
:100C300007401EB10023D440C6E90043BDE8F08759
:100C40008B4208D9002E00F0EE800021C6E9000595
:100C50000846BDE8F087B3FA83F100294AD1AB42D8
:100C600002D3824200F2FC80841A65EB0303012068
:100C70009846002EE2D0C6E90048DFE702B9FFDE61
:100C8000B2FA82F2002A40F09180A1EB0C0001211F
:100C90004FEA1C471FFA8CFEB0FBF7F307FB13006B
:100CA000250C45EA00450EFB03F0A84208D91CEBD1
:100CB000050503F1FF3802D2A84200F2CE80434678
:100CC0002D1AB5FBF7F007FB10550EFB00FEA4B282
:100CD00044EA0544A64508D91CEB040400F1FF359D
:100CE00002D2A64500F2B6802846A4EB0E0440EAE4
:100CF00003409EE7C1F120078B4022FA07FC4CEA33
:100D0000030C25FA07FA4FEA1C49BAFBF9F820FA56
:100D100007F309FB18AA8D401FFA8CFE1D4300FA49
:100D200001F308FB0EF02C0C44EA0A44A04202FA3C
:100D300001F20BD91CEB040408F1FF3A80F0888023
:100D4000A04240F28580A8F102086444241AB4FB52
:100D5000F9F009FB104400FB0EFEADB245EA044475
:100D6000A64508D91CEB040400F1FF356CD2A6455A
:100D70006AD90238644440EA0840A0FB0295A4EB1B
:100D80000E04AC42C846AE4656D353D0002E69D0AE
:100D9000B3EB080264EB0E0422FA01F304FA07F73E
:100DA0001F43CC40C6E90074002147E70CFA02FC5F
:100DB000C2F1200125FA01F34FEA1C4720FA01F1A4
:100DC00095400D43B3FBF7F107FB11331FFA8CFE7F
:100DD000280C40EA034001FB0EF3834204FA02F4BC
:100DE00008D91CEB000001F1FF382FD283422DD926
:100DF00002396044C01AB0FBF7F307FB1300ADB231
:100E000045EA004503FB0EF0A84208D91CEB050596
:100E100003F1FF3816D2A84214D9023B6544281AC0
:100E200043EA014138E73146304607E72F46E4E61A
:100E30001846F9E64B45A9D2B9EB020865EB0C0E52
:100E40000138A3E74346EAE7284694E74146D1E75D
:100E5000D0467BE76444023847E7023B65442FE70E
:100E6000084606E73146E9E6704700BF08B50C4B77
:100E70000C4A1A60586000229A60DA601A619A611E
:100E80000C225A61184602F023F928B901220649BA
:100E9000034802F0D0FB08BD00F080FBF6E700BF7E
:100EA000100A002000380140640B002008B50C4BEC
:100EB0000C4A1A60586000229A60DA601A610C21AC
:100EC00059619A61DA61184602F002F928B90122E3
:100ED0000549034802F0AFFB08BD00F05FFBF6E7F1
:100EE000540A002000440040680B0020F0B58DB08B
:100EF0000368544A934204D0534A934272D00DB0CF
:100F0000F0BD0446514B9A6942F004029A619A6915
:100F100002F004020092009A9A6942F480429A61B7
:100F20009A6902F480420192019A9A6942F00102A0
:100F30009A619B6903F001030493049B4FF40073CF
:100F400008930223099301230A9303230B93404F31
:100F500008A9384601F09EF84FF4806608960025EF
:100F6000099508A9384601F095F83A483A4B0360CC
:100F7000456085608023C3604FF4807303614661E0
:100F800085614FF40053C36100F03EFF20BB314B3D
:100F9000A3635C623148324B03601023436000233B
:100FA00083608022C2604FF4807202614FF48062DD
:100FB000426183614FF40053C36100F025FF70B9B3
:100FC000264B63635C62252000F0FCFE0022114684
:100FD000252000F0BFFE92E700F0E0FAD7E700F02E
:100FE000DDFAEDE7194BDA6942F40032DA61DA69C9
:100FF00002F400320292029A9A6942F004029A6163
:101000009B6903F004030393039B042304930223CB
:101010000593032307930E4D04A9284601F03AF8DF
:101020000823049300240594069404A9284601F09B
:1010300031F822462146262000F08CFE262000F0C2
:10104000C1FE5CE70038014000440040001002404F
:10105000000801406C0B002058000240B00B00203B
:101060004400024010B58EB00446002101912E22AA
:1010700002A803F0AFF92368324A934204D0324AFF
:10108000934230D00EB010BD304A1388B2F9002020
:10109000002AF7DB13F4804F0ED02D4A12780A2A6B
:1010A00003D02A4B00221A80ECE76FEA43436FEA31
:1010B0005343264A1380E5E7254A12780D2A0DD0BE
:1010C000C3F30D012348425401339BB21F4A1380DE
:1010D000C72BD7D9134600221A80D3E743F48043A5
:1010E0001A4A1380CEE71C4B1A78511C19701B4BFF
:1010F00019781B4B99541B785A2B02D0164B00229F
:101100001A70154B1B78022B13D0134B1A78042A34
:10111000B8D9134BDB7805339A42B3D11049114843
:10112000FFF716F8104B01221A700B4B00221A70B1
:10113000A8E70B4B5B785A2BE7D0074B00221A70BD
:10114000E3E700BF0038014000440040600B00208E
:10115000640B0020980A0020F40B0020680B00208C
:10116000F80B0020DC090020050C002008B5084819
:1011700002F03EF9064802F03DFA2028FAD1012299
:101180000449034802F057FA0028F8D108BD00BF0F
:10119000100A0020640B002008B5084802F028F966
:1011A000064802F027FA2028FAD101220449034810
:1011B00002F041FA0028F8D108BD00BF540A00200F
:1011C000680B002000B585B00023019302930393C0
:1011D0004B484C4A02604FF480728260037303757F
:1011E0004FF4C022C26143600A23036100F01AFD7C
:1011F000002864D10023019301220292039301A9E4
:101200003F4800F041FC00285CD1012301930223F8
:10121000029301A93A4800F037FC002855D1022377
:1012200001930323029301A9354800F02DFC002807
:101230004ED103230193042302930DEB03013048A5
:1012400000F022FC002846D10423019305230293D9
:1012500001A92B4800F018FC00283FD10523019379
:101260000623029301A9264800F00EFC002838D17D
:10127000062301930723029301A9214800F004FCEF
:1012800090BB072301930823029301A91C4800F097
:10129000FBFB60BB082301930923029301A91848B3
:1012A00000F0F2FB30BB092301930A23029301A94A
:1012B000134800F0E9FB00BB05B05DF804FB00F04B
:1012C0006DF997E700F06AF99FE700F067F9A6E784
:1012D00000F064F9ADE700F061F9B5E700F05EF900
:1012E000BCE700F05BF9C3E700F058F9C9E700F08C
:1012F00055F9CFE700F052F9D5E700F04FF9DBE7F9
:10130000080C00200024014030B589B0002304936C
:1013100005930693079302682A4B9A4201D009B0BD
:1013200030BD044603F56C439A6942F400729A6139
:101330009A6902F400720192019A9A6942F00402D9
:101340009A619A6902F004020292029A9A6942F042
:1013500008029A619B6903F008030393039BFD2332
:1013600004930325059504A9174800F093FE0495FE
:10137000059504A9154800F08DFE1548154B03602E
:101380000023436083608022C2604FF48072026158
:101390004FF48062426183614FF48053C36100F077
:1013A00033FD58B90A4B23625C62002205211220EA
:1013B00000F0D0FC122000F005FDB0E700F0EEF8E0
:1013C000F0E700BF0024014000080140000C01408C
:1013D000380C00200800024000B583B0124B5A6957
:1013E00042F001025A615B6903F001030193019B22
:1013F000002205210B2000F0ADFC0B2000F0E2FCE8
:10140000002205210E2000F0A5FC0E2000F0DAFCE1
:10141000002205210F2000F09DFC0F2000F0D2FCDF
:1014200003B05DF804FB00BF0010024008B50120C6
:1014300002F042F9FBE708B5012002F03DF9FBE7B5
:1014400008B5012002F038F9FBE7000008B50A4CA6
:1014500001220221204600F02FFF4FF4FA7002F023
:101460002BF900220221204600F026FF4FF4FA70EB
:1014700002F022F9EBE700BF0008014010B594B07C
:10148000244C0DF13C0CA646BEE80F00ACE80F0062
:10149000DEF80030CCF8003000210FA802F0F2F89E
:1014A0001D4B18600DF1280C04F1140EBEE80F005E
:1014B000ACE80F00DEF80030CCF8003000210AA8BC
:1014C00002F0E0F8154B18600DF1140C04F1280E31
:1014D000BEE80F00ACE80F00DEF80030CCF80030BA
:1014E000002105A802F0CEF80D4B1860EE4604F17D
:1014F0003C0CBCE80F00AEE80F00DCF80030CEF882
:1015000000300021684602F0BDF8064B186014B0A8
:1015100010BD00BF08A60008800C0020840C00202D
:101520007C0C0020880C002010B588B000220492AA
:10153000059206920792174B996941F02001996133
:10154000996901F0200101910199996941F0040123
:101550009961996901F0040102910299996941F038
:10156000080199619B6903F008030393039B0A4CEC
:101570000221204600F0A0FE0223049301230593DC
:1015800006930323079304A9204600F083FD08B0C7
:1015900010BD00BF001002400008014072B6FEE717
:1015A00000B595B0282200210DEB020002F012FFD9
:1015B00000230593069307930893099301930293DD
:1015C0000393049301220A924FF480330B930E92FB
:1015D0000222119212934FF4E01313930AA800F021
:1015E00087FEC8B90F2305930221069100230793B4
:1015F0004FF480620892099305A801F0B9F868B920
:10160000022301934FF40043039301A801F08CF9E6
:1016100030B915B05DF804FBFFF7C0FFFFF7BEFF60
:10162000FFF7BCFF08B500F083F9FFF7B9FFFFF73C
:101630007BFFFFF7D1FEFFF7C5FD00F0F5F84FF493
:10164000E130FFF713FC4FF4E130FFF72FFC0448C3
:1016500000F008F8FFF712FF02F00FF8FEE700BFF6
:10166000100A002008B5054B1860054B18680023C8
:1016700002221946806802F013FF08BD8C0C00207E
:101680001000002010B5013801280AD814464FF088
:10169000FF3392B20748006801F049FD40B9204687
:1016A00010BD02F06DFE092303604FF0FF30F7E735
:1016B0000520F5E78C0C002008B548B94FF0FF3342
:1016C00001220848006801F09EFD40B9012008BDD4
:1016D00002F056FE092303604FF0FF30F7E70520C4
:1016E000F5E700BF8C0C002000B583B0114B9A6960
:1016F00042F001029A619A6902F001020092009A96
:10170000DA6942F08052DA61DB6903F080530193B9
:10171000019B00220F216FF0010000F01BFB064A25
:10172000536823F0E06343F00073536003B05DF847
:1017300004FB00BF0010024000000140FEE7FEE78E
:10174000FEE7FEE7FEE7704708B500F003F902F098
:10175000E1FD012800D108BD02F0B4F8FBE700006C
:1017600008B5024800F0F4FB08BD00BF380C0020AB
:1017700008B5024800F0ECFB08BD00BFB00B00202C
:1017800008B5024800F0E4FB08BD00BF6C0B002068
:1017900008B5024800F0F2F808BD00BF080C0020B0
:1017A00008B5024801F0D5F908BD00BF940C00202F
:1017B0000120704708B502F0E3FD162303604FF0E7
:1017C000FF3008BD08B54FF0FF31FFF7F3FFFEE72C
:1017D00008B503460B4A126842B10A4A106803442E
:1017E0006A46934206D8074A136008BD054A06496F
:1017F0001160F2E702F0C4FD0C2303604FF0FF30EC
:10180000F3E700BF900C0020781A00204FF0FF3063
:1018100070474FF400534B60002070470120704721
:10182000002070477047000000B58BB0002308937C
:1018300009930193029303930493059306930793EB
:1018400018484FF08042026047224260836040F2B5
:10185000CF72C2600361836101F072FAC0B90023E4
:101860000893099308A90F4801F030FB98B9602349
:1018700001930923029300230393059304220DEBA4
:101880000201084801F0BAFA40B90BB05DF804FB58
:10189000FFF784FEE3E7FFF781FEE8E7FFF77EFE50
:1018A000F3E700BF940C00200368B3F1804F00D031
:1018B000704700B583B003F50433DA6942F00102E2
:1018C000DA61DB6903F001030193019B002205212A
:1018D0001C2000F03FFA1C2000F074FA03B05DF801
:1018E00004FB000010B504460E4B18784FF47A73D1
:1018F000B3FBF0F30C4A1068B0FBF3F000F070FAA1
:1019000068B90F2C01D901200AE0002221464FF0CE
:10191000FF3000F01FFA054B1C60002000E00120A2
:1019200010BD00BF040000200000002008000020BF
:1019300008B5074A136843F010031360032000F052
:10194000F7F90F20FFF7CEFFFFF7CEFE002008BD0E
:1019500000200240034A1168034B1B780B441360BC
:10196000704700BFDC0C002004000020014B186809
:10197000704700BFDC0C00207047704710B504466C
:1019800003685A6812F0200F18D01A6812F0020F7C
:1019900014D0826A12F0100F03D1826A42F40072EE
:1019A00082629A6802F46022B2F5602F38D0204635
:1019B000FFF7E2FF23686FF012021A6023685A688B
:1019C00012F0800F22D01A6812F0040F1ED0A26A03
:1019D00012F0100F03D1A26A42F40052A2629A6878
:1019E00002F4E042B2F5E04F31D05A6812F4806F51
:1019F00005D19A6802F46022B2F5602F24D0204607
:101A000000F094F923686FF00C021A6023685A689A
:101A100012F0400F03D01B6813F0010F28D110BD46
:101A2000227B002AC3D15A6822F020025A60A36A9E
:101A300023F48073A362A36A13F4805FB7D1A36A0F
:101A400043F00103A362B2E7227B002AD7D15A6890
:101A500022F080025A60A36A23F48053A362A36A2F
:101A600013F4807FCBD1A36A43F00103A362C6E7DE
:101A7000A36A43F48033A3622046FFF77EFF236806
:101A80006FF001021A60CAE730B482B000220192FE
:101A900090F82420012A00F091800346012280F86A
:101AA00024204A68062A2DD80468606B02EB820263
:101AB000053A4FF01F0C0CFA02FC20EA0C000D68EE
:101AC00005FA02F2024362630A68092A3AD91C68DD
:101AD000E06802EB42021E3A4FF0070C0CFA02FCDF
:101AE00020EA0C008D6805FA02F20243E2600A68FF
:101AF000103A012A36D90020002283F8242002B0AF
:101B000030BC70470C2A0ED80568286B02EB8202A5
:101B1000233A1F24944020EA04000C6804FA02F2DD
:101B200002432A63D0E70568E86A02EB8202413A81
:101B30001F24944020EA04000C6804FA02F20243D5
:101B4000EA62C1E71C68206902EB42024FF0070C11
:101B50000CFA02FC20EA0C008D6805FA02F202433E
:101B60002261C4E71A681648824205D09A6A42F098
:101B700020029A620120BFE7906810F4000F1BD189
:101B8000906840F4000090600A68102A01D000209C
:101B9000B2E70C4A12680C49A1FB0212920C02EB4C
:101BA00082025200019202E0019A013A0192019AE6
:101BB000002AF9D100209FE700209DE702209EE740
:101BC000002401400000002083DE1B4338B5036879
:101BD0009A6812F0010F01D1002038BD04469A68BE
:101BE00022F001029A60FFF7C1FE054623689B6858
:101BF00013F0010F13D0FFF7B9FE431B022BF5D9E9
:101C000023689B6813F0010FF0D0A36A43F0100320
:101C1000A362E36A43F00103E3620120DDE70020F1
:101C2000DBE7000000287BD070B50446836A002BF8
:101C30004DD02046FFF7CAFFA36A13F0100369D105
:101C4000002867D1A26A22F4885222F0020242F0F0
:101C50000202A2626268E1690A43217B42EA410210
:101C6000A568B5F5807F02D0012D36D01D46267DB2
:101C7000012E35D02668716821F4694129437160CD
:101C80002568AE68274931401143A960A168B1F5C4
:101C9000807F01D0012902D12369013B1B05256802
:101CA000E96A21F470010B43EB62236899681E4BCB
:101CB0000B409A4225D0A36A23F0120343F010038D
:101CC000A362E36A43F00103E362012027E0C362F9
:101CD00080F82430FFF718FBABE74FF48075C6E7B8
:101CE00031B9A169013945EA413141F40065C1E7E3
:101CF000A16A41F02001A162E16A41F00101E162C3
:101D0000B8E70023E362A36A23F0030343F001036F
:101D1000A36204E0A36A43F01003A362012070BD34
:101D200001207047FDF7E1FFFE0E1FFF7047000026
:101D3000074AD36823F4E0631B041B0C000200F481
:101D4000E060034343F0BF6343F40033D360704764
:101D500000ED00E000B5194BDB68C3F30223C3F1CB
:101D6000070CBCF1040F28BF4FF0040C03F1040E64
:101D7000BEF1060F18D9033B4FF0FF3E0EFA0CFCE4
:101D800021EA0C0199400EFA03F322EA03031943F6
:101D900000280BDB0901C9B200F1604000F5614089
:101DA00080F800135DF804FB0023E5E700F00F0066
:101DB0000901C9B2024B1954F4E700BF00ED00E07D
:101DC00014ED00E0002807DB00F01F0240090123AA
:101DD0009340024A42F82030704700BF00E100E023
:101DE0000138B0F1807F0BD24FF0E0235861054AF3
:101DF000F02182F823100020986107221A617047B1
:101E00000120704700ED00E060B310B402460168A5
:101E1000154B0B441548A0FB03031B099B001364DF
:101E2000134BD363022382F82130086820F47F50DB
:101E300020F03000536894682343D4682343146926
:101E400023435469234394692343D46923430343BD
:101E50000B6000209063012382F8213082F820007B
:101E600010BC704701207047F8FFFDBFCDCCCCCC33
:101E70000000024090F82130022B06D00423836337
:101E8000002380F82030012070470268136823F097
:101E90000E0313600268136823F001031360036CE0
:101EA000C16B012202FA03F34B6080F8212000236A
:101EB00080F820301846704708B590F82130022B82
:101EC00003D004238363012008BD0268136823F054
:101ED0000E0313600268136823F0010313600368A4
:101EE000194A934214D0143293421FD014329342B1
:101EF0001ED0143293421ED0143293421ED014329C
:101F0000934202D04FF0807203E04FF4801200E061
:101F100001220E4B5A60012380F82130002380F803
:101F20002030436B6BB198470020CDE71022F0E7DB
:101F30004FF48072EDE74FF48052EAE74FF48032BD
:101F4000E7E70020C0E700BF0800024000000240B1
:101F500038B5C36B1A6804682568016C04238B408C
:101F6000134235D015F0040F32D0236813F0200F40
:101F700003D1236823F0040323600368434A934298
:101F800014D01432934218D01432934217D0143222
:101F9000934217D01432934217D01432934202D096
:101FA0004FF0806203E04FF4800200E00422384BDF
:101FB0005A60C36A03B1984738BD4022F7E74FF42F
:101FC0008062F4E74FF48042F1E74FF48022EEE7BD
:101FD00002238B4013423CD015F0020F39D0236806
:101FE00013F0200F06D1236823F00A032360012396
:101FF00080F821300368254A934214D0143293426A
:102000001CD0143293421BD0143293421BD0143292
:1020100093421BD01432934202D04FF0007203E07F
:102020004FF4001200E00222194B5A60002380F89E
:102030002030836A002BBFD09847BDE72022F3E70A
:102040004FF40072F0E74FF40052EDE74FF4003226
:10205000EAE7082303FA01F11142ADD015F0080FA9
:10206000AAD0236823F00E032360026CC16B012306
:1020700003FA02F24A60836380F82130002380F87B
:102080002030036B002B97D0984795E7080002405B
:102090000000024070B582B00024A446A6E0804D46
:1020A000AA4210D007D97F4DAA420CD005F5803541
:1020B000AA4208D013E0A5F58015AA4203D005F581
:1020C0007025AA4207D18A68002A58D0012A51D027
:1020D0004361082403E0A5F58015AA42F3D0BEF1C0
:1020E000FF0F4ED80646BEF1FF0F4CD84FEA8C02C8
:1020F00033680F25954023EA050304FA02F21343DF
:1021000033604B6813F0805F6ED0674B9A6942F082
:1021100001029A619B6903F001030193019B4FEA5D
:102120009C02951C614B53F825600CF003039D0045
:102130000F23AB4026EA03065D4B984229D003F5F6
:102140008063984200F08E8003F58063984200F02F
:102150008B8003F58063984219D004231AE0CC6881
:10216000BDE7CC680434BAE7CC680834B7E7CC687C
:102170000C34B4E703610824B1E70024AFE704247A
:10218000ADE7061DAFE7ACF108029200B0E703230C
:1021900000E00023AB4033430232444D45F8223087
:1021A0004B6813F4803F61D0424A136843EA0E0340
:1021B00013604B6813F4003F5ED03E4A536843EA15
:1021C0000E0353604B6813F4801F5BD0394A936849
:1021D00043EA0E0393604B6813F4001F58D0354A4E
:1021E000D36843EA0E03D3600CF1010C0A6832FA9B
:1021F0000CF353D0012303FA0CF302EA030E33EA83
:102200000202F1D14A68122A3FF649AF122A3FF67C
:1022100066AF01A555F822F0C72000085F2100082D
:10222000692100087B210008DF200008DF2000086A
:10223000DF200008DF200008DF200008DF20000882
:10224000DF200008DF200008DF200008DF20000872
:10225000DF200008DF200008DF20000863210008DD
:102260006F210008012395E7022393E7114A1368C1
:1022700023EA0E0313609CE70E4A536823EA0E0319
:1022800053609FE70B4A936823EA0E039360A2E72B
:10229000084AD36823EA0E03D360A5E702B070BDF5
:1022A0000000221000003110001002400000014028
:1022B00000080140000401400AB1016170470904AF
:1022C0000161704782B0084B1B68084AA2FB0323D8
:1022D0005B0A00FB03F3019300BF019B5A1E0192AE
:1022E000002BF9D102B0704700000020D34D6210DE
:1022F000002800F0F18170B582B00446036813F045
:10230000010F2CD0994B5B6803F00C03042B1DD0FC
:10231000964B5B6803F00C03082B12D06368B3F58F
:10232000803F41D0002B55D103F1804303F50433A6
:102330001A6822F480321A601A6822F480221A6025
:1023400037E08A4B5B6813F4803FE7D0874B1B680C
:1023500013F4003F03D06368002B00F0BF812368B3
:1023600013F0020F75D0814B5B6813F00C0F5FD038
:102370007E4B5B6803F00C03082B54D02369002BC1
:1023800000F08A807A4B01221A60FFF7EFFA0546C7
:10239000764B1B6813F0020F75D1FFF7E7FA401B6D
:1023A0000228F5D903209EE1704A136843F4803374
:1023B0001360636843B3FFF7D9FA05466B4B1B689C
:1023C00013F4003FCBD1FFF7D1FA401B6428F5D9B5
:1023D000032088E1B3F5A02F09D0644B1A6822F4DA
:1023E00080321A601A6822F480221A60E1E703F151
:1023F0008043A3F53C331A6842F480221A601A68BD
:1024000042F480321A60D4E7FFF7B0FA0546574B22
:102410001B6813F4003FA2D0FFF7A8FA401B642802
:10242000F5D903205FE1514B5B6813F4803FA5D1E0
:102430004E4B1B6813F0020F03D02369012B40F0B1
:102440004F814A4A136823F0F803616943EAC103E4
:102450001360236813F0080F33D0A369002B5CD0FE
:10246000434B0122C3F88024FFF780FA05463F4B17
:102470005B6A13F0020F21D1FFF778FA401B0228A4
:10248000F5D903202FE1394A136823F0F803616975
:1024900043EAC1031360DCE7354B00221A60FFF703
:1024A00065FA0546314B1B6813F0020FD1D0FFF7D8
:1024B0005DFA401B0228F5D9032014E10120FFF743
:1024C00001FF236813F0040F00F09680274BDB69AF
:1024D00013F0805F34D1254BDA6942F08052DA6123
:1024E000DB6903F080530193019B0125214B1B689D
:1024F00013F4807F26D0E368012B3DD0002B53D10D
:1025000003F1804303F504331A6A22F001021A62D0
:102510001A6A22F004021A6233E0154B0022C3F853
:102520008024FFF723FA0546104B5B6A13F0020F75
:10253000C7D0FFF71BFA401B0228F5D90320D2E0D1
:102540000025D3E70B4A136843F480731360FFF749
:102550000DFA0646074B1B6813F4807FCBD1FFF7BB
:1025600005FA801B6428F5D90320BCE00010024066
:1025700000004242007000405F4A136A43F00103CA
:102580001362E36833B3FFF7F1F906465A4B1B6A4F
:1025900013F0020F2FD1FFF7E9F9801B41F28833C6
:1025A0009842F3D903209EE0052B09D0524B1A6ABA
:1025B00022F001021A621A6A22F004021A62E0E7AB
:1025C0004D4B1A6A42F004021A621A6A42F0010282
:1025D0001A62D6E7FFF7CAF90646474B1B6A13F0A3
:1025E000020F08D0FFF7C2F9801B41F288339842EE
:1025F000F3D9032077E0E5B9E369002B72D03E4AB6
:10260000526802F00C02082A56D0022B17D03B4B1E
:1026100000221A66FFF7AAF90446374B1B6813F02D
:10262000007F47D0FFF7A2F9001B0228F5D903204D
:1026300059E0314AD36923F08053D361DCE72F4B53
:1026400000221A66FFF792F905462B4B1B6813F020
:10265000007F06D0FFF78AF9401B0228F5D9032036
:1026600041E0236AB3F5803F1AD023494B6823F435
:102670007413226A606A024313434B601F4B0122AA
:102680001A66FFF773F904461B4B1B6813F0007FB3
:102690000ED1FFF76BF9001B0228F5D9032022E0C9
:1026A000154A536823F40033A1680B435360DCE7F9
:1026B000002018E0002016E0012B16D00E4B5B68BE
:1026C00003F48031226A914211D103F47013626ADB
:1026D00093420ED1002006E001207047012002E065
:1026E000012000E0002002B070BD0120FBE70120C6
:1026F000F9E70120F7E700BF001002400000424266
:1027000086B0174B0FCB0DF1180C0CE90F0040F2FF
:102710000123ADF80430134B5B6803F00C02082A68
:1027200002D0114806B07047C3F3834218326A449E
:1027300012F8100C13F4803F0DD00A4B5B68C3F302
:10274000404318336B4413F8143C074A02FB00F073
:10275000B0FBF3F0E6E7054B03FB00F0E2E700BF58
:1027600098A600080010024000127A0000093D00FF
:10277000002800F0A08070B50D460446524B1B683F
:1027800003F007038B420BD24F4A136823F0070371
:102790000B431360136803F007038B4240F08D80F6
:1027A000236813F0020F17D013F0040F04D0474A28
:1027B000536843F4E0635360236813F0080F04D0B8
:1027C000424A536843F460535360404A536823F0CD
:1027D000F003A1680B435360236813F0010F31D05D
:1027E0006368012B20D0022B25D0384A126812F0E2
:1027F000020F64D035494A6822F0030213434B604C
:10280000FFF7B4F80646314B5B6803F00C036268CF
:10281000B3EB820F16D0FFF7A9F8801B41F2883383
:102820009842F0D9032045E0284A126812F4003F8C
:10283000E0D101203EE0254A126812F0007FD9D194
:10284000012037E0204B1B6803F00703AB420AD995
:102850001D4A136823F007032B431360136803F02A
:102860000703AB422DD1236813F0040F06D0174A9B
:10287000536823F4E063E1680B435360236813F06B
:10288000080F07D0114A536823F46053216943EAC3
:10289000C1035360FFF734FF0C4B5B68C3F30313B2
:1028A0000B4AD35CD8400B4B18600B4B1868FFF7F2
:1028B00019F8002070BD012070470120FAE70120BF
:1028C000F8E70120F6E700BF0020024000100240B8
:1028D00080A600080000002008000020014B1868B6
:1028E000704700BF0000002008B5FFF7F7FF044B5A
:1028F0005B68C3F30223034AD35CD84008BD00BF22
:102900000010024090A6000808B5FFF7E7FF044B4F
:102910005B68C3F3C223034AD35CD84008BD00BF41
:102920000010024090A6000870B582B0044603680B
:1029300013F0010F36D03F4BDB6913F0805F49D1B4
:102940003C4BDA6942F08052DA61DB6903F0805374
:102950000193019B0125384B1B6813F4807F3BD00A
:10296000344B1B6A13F4407313D0626802F4407254
:102970009A420ED02F4A136A23F440702F49012641
:10298000C1F840640026C1F84064106213F0010FE2
:1029900036D1284A136A23F4407361680B431362EB
:1029A000002D3ED1236813F0020F06D0214A536850
:1029B00023F44043A1680B435360236813F0100FC6
:1029C00034D01C4A536823F48003E1680B435360FE
:1029D00000202CE00025BEE7174A136843F48073FB
:1029E0001360FEF7C3FF0646134B1B6813F4807F8A
:1029F000B6D1FEF7BBFF801B6428F5D9032016E093
:102A0000FEF7B4FF06460B4B1B6A13F0020FC0D152
:102A1000FEF7ACFF801B41F288339842F3D90320C4
:102A200005E0D36923F08053D361BBE7002002B0F7
:102A300070BD00BF00100240007000400000424224
:102A400070B4036A23F001030362036A4668826973
:102A500022F073020C6844EA020523F002028B683C
:102A600013430D4CA04209D00B4CA0420DD0466040
:102A700085614A684263036270BC704723F00803B3
:102A8000CA68134323F00403EEE726F440764A694C
:102A900032438E691643EAE7002C014030B4036AE2
:102AA00023F480730362036A4568C26922F07302EB
:102AB0000C68224323F400738C6843EA04230F4C10
:102AC000A04209D00D4CA0420ED04560C2614A68B8
:102AD000C263036230BC704723F40063CC6843EAEE
:102AE000042323F48063EDE725F440554C6945EA5F
:102AF00004158C6945EA0415E7E700BF002C014086
:102B000030B4036A23F480530362036A4468C269E1
:102B100022F4E6420D6842EA052223F400538D6850
:102B200043EA0533074DA84206D04460C2614A68B3
:102B30000264036230BC704724F480444D6944EA67
:102B40008514F2E7002C01407047704770477047CA
:102B5000704710B5044603681A6912F0020F11D0CD
:102B6000DA6812F0020F0DD06FF002021A61012331
:102B7000037703689B6913F0030F70D0FFF7E6FF3C
:102B80000023237723681A6912F0040F12D0DA6841
:102B900012F0040F0ED06FF004021A6102232377A3
:102BA00023689B6913F4407F5FD02046FFF7CEFF78
:102BB0000023237723681A6912F0080F12D0DA680D
:102BC00012F0080F0ED06FF008021A610423237769
:102BD0002368DB6913F0030F4ED02046FFF7B6FFE2
:102BE0000023237723681A6912F0100F12D0DA68D5
:102BF00012F0100F0ED06FF010021A610823237725
:102C00002368DB6913F4407F3DD02046FFF79EFF29
:102C10000023237723681A6912F0010F03D0DA68C2
:102C200012F0010F36D123681A6912F0800F03D019
:102C3000DA6812F0800F34D123681A6912F0400F5D
:102C400003D0DA6812F0400F32D123681A6912F00B
:102C5000200F03D0DA6812F0200F30D110BDFFF73B
:102C600074FF2046FFF773FF8AE72046FFF76DFFEA
:102C70002046FFF76CFF9BE72046FFF766FF2046E4
:102C8000FFF765FFACE72046FFF75FFF2046FFF741
:102C90005EFFBDE76FF001021A612046FFF754FFA7
:102CA000C1E76FF080021A61204600F046F9C3E7E1
:102CB0006FF040021A612046FFF74AFFC5E76FF048
:102CC00020021A61204600F037F9C7E703681B4A63
:102CD00090420AD0B0F1804F07D0A2F594329042D2
:102CE00003D002F58062904203D123F070034A685A
:102CF0001343124A90420AD0B0F1804F07D0A2F598
:102D00009432904203D002F58062904203D123F4C2
:102D10004073CA68134323F080034A691343036076
:102D20008B68C3620B688362044B984202D0012314
:102D3000436170470B690363F9E700BF002C014052
:102D400040B310B5044690F83D30F3B1022384F847
:102D50003D30214651F8040BFFF7B8FF012384F8FA
:102D6000463084F83E3084F83F3084F8403084F8B0
:102D7000413084F8423084F8433084F8443084F899
:102D8000453084F83D30002010BD80F83C30FEF71F
:102D90008BFDDBE70120704730B4036A23F010039A
:102DA0000362036A4468826922F4E6420D6842EADB
:102DB000052223F020038D6843EA05130E4DA84237
:102DC00009D00D4DA8420ED0446082614A688263EA
:102DD000036230BC704723F08003CD6843EA0513DB
:102DE00023F04003EDE724F440644D6944EA850490
:102DF0008D6944EA8504E7E7002C014038B590F876
:102E00003C30012B60D004460D46012380F83C3055
:102E10000C2A1AD8DFE802F0071919191D19191917
:102E20003119191944000068FFF70AFE22689369F6
:102E300043F0080393612268936923F004039361CC
:102E40002268936929690B439361002084F83C0050
:102E500038BD0068FFF7A0FF2268936943F4006360
:102E600093612268936923F4806393612268936974
:102E7000296943EA01239361E7E70068FFF70EFE43
:102E80002268D36943F00803D3612268D36923F031
:102E90000403D3612268D36929690B43D361D4E762
:102EA0000068FFF72DFE2268D36943F40063D36105
:102EB0002268D36923F48063D3612268D3692969C6
:102EC00043EA0123D361C0E70220C1E790F83C3018
:102ED000012B2CD010B4012380F83C30022380F861
:102EE0003D3003685A689C6822F0700C0A6842EA18
:102EF0000C025A6003680F4A93420AD0B3F1804F24
:102F000007D0A2F59432934203D002F58062934237
:102F100004D124F080044A6814439C60012380F8A3
:102F20003D30002380F83C30184610BC704702202A
:102F3000704700BF002C0140704770470268D3689B
:102F400023F49073D3600268536923F00103536143
:102F5000036B012B05D0202380F83E300023036350
:102F600070470268D36823F01003D360F3E790F84A
:102F70003D30DBB2212B01D0022070478368B3F5CE
:102F8000805F17D0036A5A1C02621A7803685A607D
:102F9000C38C9BB2013B9BB2C3844BB90268D3681C
:102FA00023F08003D3600268D36843F04003D3600A
:102FB000002070470369002BE4D1036A1B88026874
:102FC000C3F308035360036A02330362E0E70000BF
:102FD00010B504460268136923F44053C1680B43DB
:102FE000136183680269134342691A430168CB681D
:102FF00023F4B05323F00C031343CB6002685369EE
:1030000023F4407381690B4353610268134B9A4266
:1030100020D0FFF769FC024602EB820202EB82023B
:1030200063689B00B2FBF3F20D48A0FB0231490933
:10303000642303FB11231B013233A0FB03235B0931
:1030400003F0F00202EB011203F00F0321681344B6
:103050008B6010BDFFF758FC0246DDE700380140E9
:103060001F85EB512DE9F84305460F461646994654
:10307000DDF820802C68246837EA04030CBF4FF089
:10308000010C4FF0000CB4451FD1B8F1FF3FF1D057
:10309000B8F1000F05D0FEF769FCA0EB0900404530
:1030A000E8D92A68D36823F4D073D3602A685369B7
:1030B00023F001035361202385F83D3085F83E302D
:1030C000002385F83C30032000E00020BDE8F883B1
:1030D00058B310B5044690F83D300BB3242384F860
:1030E0003D302268D36823F40053D3602046FFF7B5
:1030F0006FFF2268136923F49043136122685369B8
:1031000023F02A0353612268D36843F40053D36049
:1031100000202064202384F83D3084F83E3010BD28
:1031200080F83C30FDF7E2FED8E7012070472DE93A
:10313000F04182B01E4690F83D30DBB2202B54D1D6
:1031400004460D469046002953D0002A53D090F8EB
:103150003C30012B51D0012380F83C300023036424
:10316000212380F83D30FEF701FC0746A4F82480B7
:10317000A4F82680A368B3F5805F05D04FF000085F
:10318000002384F83C3012E0236913B14FF00008AB
:10319000F6E7A8460025F3E738F8023B2268C3F3B8
:1031A00008035360E28C92B2013A92B2E284E38C5B
:1031B0009BB273B100963B46002280212046FFF768
:1031C00051FFE0B9002DE7D015F8012B23685A60B4
:1031D000E8E700963B46002240212046FFF742FFE9
:1031E00078B9202384F83D3000E0022002B0BDE829
:1031F000F0810120FAE70120F8E70220F6E703203A
:10320000F4E70320F2E72DE9F04182B01E4690F882
:103210003E30DBB2202B5CD104460D46904600299F
:103220005BD0002A5BD090F83C30012B59D00123B1
:1032300080F83C3000230364222280F83E200363A0
:10324000FEF794FB0746A4F82C80A4F82E80A36810
:10325000B3F5805F05D04FF00008002384F83C30C0
:1032600017E0236913B14FF00008F6E7A8460025E0
:10327000F3E723685B68C3F3080328F8023B03E025
:1032800023685B682B700135E28D92B2013A92B2ED
:10329000E285E38D9BB2BBB100963B460022202124
:1032A0002046FFF7DFFEF0B9002DE2D0A368B3F5AA
:1032B000805FE5D013B92369002BE1D023685B68F8
:1032C00003F07F032B70DEE7202384F83E300020DC
:1032D00000E0022002B0BDE8F0810120FAE7012001
:1032E000F8E70220F6E70320F4E7704708B5016825
:1032F000CA6822F04002CA60202280F83D20FFF711
:10330000F4FF002008BD704708B5406A0023C3855C
:10331000C384FFF7F8FF08BD704790F83E30DBB27A
:10332000222B60D18368B3F5805F46D0826AB3F503
:10333000805F04D0002B4DD10369002B4AD1036874
:103340005B681370836A01338362C38D9BB2013B58
:103350009BB2C385002B48D100B583B00268D36807
:1033600023F02003D3600268D36823F48073D36012
:103370000268536923F001035361202380F83E3033
:10338000036B012B2CD1002303630268D36823F065
:103390001003D36003681A6812F0100F06D00022E1
:1033A00001921A6801925B680193019B818DFFF77E
:1033B000B3FF002003B05DF804FB0269002AB5D119
:1033C000826A03685B68C3F308031380836A02336D
:1033D0008362BAE703685B6803F07F031370B1E7A9
:1033E000FDF740FEE5E7022070470020704700002F
:1033F00030B583B0044602681368D068516913F091
:103400000F0505D113F0200F02D010F0200F19D1B5
:103410002DB111F0010119D110F4907F16D1216B5B
:10342000012975D013F0800F03D010F0800F40F009
:10343000D78013F0400F03D010F0400F40F0D4803D
:1034400003B030BD2046FFF768FFF9E713F0010F26
:1034500006D010F4807F03D0226C42F00102226477
:1034600013F0040F04D019B1226C42F0020222645E
:1034700013F0020F04D019B1226C42F0040222644E
:1034800013F0080F07D010F0200F00D119B1226CF3
:1034900042F008022264226C002AD1D013F0200FDF
:1034A00002D010F0200F21D123685B6903F04003A4
:1034B000226C12F0080F00D123B32046FFF73EFD27
:1034C00023685A6912F0400F18D05A6922F040025E
:1034D0005A61A36B73B1464A5A63A06BFEF7ECFCCA
:1034E0000028ADD0A06B436B9847A9E72046FFF7B3
:1034F00014FFD9E72046FFF706FFA1E72046FFF7B4
:1035000002FF9DE72046FFF7FEFE0023236497E7B6
:1035100013F0100F86D010F0100F83D0002301930A
:103520001368019353680193019B536913F0400F93
:1035300032D0A16B0B685B689BB2002B80D0A08D52
:1035400098427FF67DAFE3858B69202B08D1A18D52
:10355000E38D9BB2C91A89B22046FFF7DDFE6FE703
:10356000D36823F48073D3602268536923F0010386
:1035700053612268536923F040035361202384F888
:103580003E30002323632268D36823F01003D36006
:10359000A06BFEF76FFCDAE7A18DE38D9BB2C91A31
:1035A00089B2E38D9BB2002B3FF44AAF00293FF470
:1035B00047AFD36823F49073D3602268536923F034
:1035C00001035361202384F83E30002323632268E3
:1035D000D36823F01003D3602046FFF79DFE2FE74A
:1035E0002046FFF7C4FC2BE72046FFF77FFE27E7C6
:1035F0000933000890F83D3090F83E0018437047BA
:10360000034681628285C28500201864222283F8E5
:103610003E2083F83C001968CA6842F48072CA6090
:1036200019684A6942F001024A611A68D36843F096
:103630002003D360704708B590F83E30DBB2202BF2
:103640000DD171B17AB190F83C30012B0DD001232E
:1036500080F83C3000230363FFF7D2FF00E0022034
:1036600008BD0120FCE70120FAE70220F8E78428E2
:1036700001D0033070470020704708B500F082FC8D
:10368000002008BDF0B585B00C464568066807699E
:10369000B0F90800FFF7EBFF03AB0193009023465E
:1036A000BAB23146284600F03BFC012802D103980B
:1036B00005B0F0BD0020FBE708B500B9012000F01F
:1036C000B5FD002008BD00F1080343604FF0FF3254
:1036D0008260C360036100230360704700230361BD
:1036E000704743684B609A688A60516099600861CE
:1036F000036801330360704730B40D68B5F1FF3FD4
:1037000011D000F108031C465B681A68AA42FAD976
:1037100063684B6099608C60616008610368013385
:10372000036030BC70470469F2E70369416882684E
:103730008A60416851605A68824206D00022026164
:103740001A68013A1A601868704782685A60F5E78B
:1037500006480068006880F3088862B661B6BFF367
:103760004F8FBFF36F8F00DF00BF000008ED00E058
:1037700000B583B0002301930C4B1B68B3F1FF3FEE
:103780000DD14FF0900383F31188BFF36F8FBFF318
:103790004F8F019B002BFCD003B05DF804FBCA22C5
:1037A0000349044800F068FEEBE700BF0C0000206E
:1037B000ACA6000814A700084FF0807340F8043C42
:1037C00021F0010140F8081C034B40F80C3C40F884
:1037D000202C4038704700BF7137000800000000FF
:1037E000074B19680868B0E8F00F80F30988BFF349
:1037F0006F8F4FF0000080F311884EF00D0E704770
:103800000019002008B54FF0900383F31188BFF32F
:103810006F8FBFF34F8F0A4A136801331360012B78
:1038200000D008BD4FF0E023D3F8043D13F0FF0FA4
:10383000F7D040F275120349034800F01DFEF0E78F
:103840000C000020ACA6000814A7000808B5094B1E
:103850001B683BB1074A1368013B13600BB983F344
:10386000118808BD4FF4BE720349044800F004FEFD
:10387000F0E700BF0C000020ACA6000814A7000869
:10388000EFF30980BFF36F8F0D4B1A6820E9F00F3B
:1038900010602DE908404FF0900080F3118800F08F
:1038A000EDFC4FF0000080F31188BDE80840196876
:1038B0000868B0E8F00F80F30988BFF36F8F704796
:1038C0000019002008B54FF0900383F31188BFF36F
:1038D0006F8FBFF34F8F00F09DFB28B14FF0E023B7
:1038E0004FF08052C3F8042D002383F3118808BDE4
:1038F0004FF0E022002313619361054B1B680549DB
:10390000A1FB03139B09013B53610723136170471C
:1039100000000020D34D621010B582B02F4B1A78F2
:10392000D2B20192FF221A701B78DBB28DF80330FD
:103930009DF8033003F09003294A1370294B0722A6
:103940001A6009E0274A1368013B13609DF80330B1
:103950005B00DBB28DF803309DF8033013F0800F6D
:10396000F0D1204B1B68032B2AD11E4B1B68032B65
:103970002DD11C4A13681B02136003F4E06313602B
:10398000019BDBB2154A13704FF0E023D3F8202DD2
:1039900042F47002C3F8202DD3F8202D42F070427B
:1039A000C3F8202DFFF7A4FF00240F4B1C60FFF786
:1039B000CFFE00F063FCFFF7DBFE204602B010BD37
:1039C00040F22D1209490A4800F056FDCDE74FF4A8
:1039D0009B720649064800F04FFDCAE700E400E08C
:1039E000E00C0020E40C00200C000020ACA6000835
:1039F00014A70008124A12F0070F1ED0D11D21F0A3
:103A00000701C1F5406313440A460E4802600021D5
:103A100041601344083B23F007030B4803605960DF
:103A20001960991A51601360084B1960084B1960AE
:103A3000084B4FF000421A6070474FF44063E4E7D0
:103A4000EC0C0020F8180020E80C0020F4180020EE
:103A5000F0180020EC180020154B1A461B68834212
:103A6000FBD3516802EB010C844509D0416800EB9F
:103A7000010C634509D00360904218D01060704774
:103A80004068014451601046F0E710B4094C2468C6
:103A9000A3420AD05B681944416013681B68036045
:103AA000904200D0106010BC70470460F8E7704787
:103AB000F8180020E80C0020F8B5054600F0A2FA3E
:103AC000334B1B68A3B1334B1B681D4250D135B13A
:103AD000083515F0070F02D025F007050835002D31
:103AE00048D02D4B1B68AB4246D32C4A146804E0E7
:103AF000FFF780FFE7E722461C466368AB4202D22D
:103B00002368002BF7D1224B1B68A34236D01668DE
:103B100008362368136063685B1B102B0AD967198A
:103B200017F0070F1ED163685B1B7B60656038462A
:103B3000FFF792FF626818490B689B1A0B601849DF
:103B400009688B4201D216490B60124B1B68134364
:103B500063600023236000F0EBFA16F0070F0FD12B
:103B60003046F8BDC2220F490F4800F085FCDAE765
:103B70000026F0E70026EEE70026ECE70026EAE75D
:103B80004FF481720749084800F076FCE8E700BF6F
:103B9000E80C0020EC180020F0180020F818002095
:103BA000F418002024A7000814A70008002835D026
:103BB00038B50446A0F1080550F8042C184B1B68D2
:103BC0001A4212D054F8083C2BB140F21712154992
:103BD000154800F051FC54F8043C114A1268134295
:103BE00002D054F8081C39B138BD4FF48B720D491E
:103BF0000D4800F041FCE5E723EA020344F8043CE9
:103C000000F000FA54F8041C084A13680B441360CF
:103C10002846FFF721FF00F08BFAE5E7704700BF69
:103C2000EC18002024A7000814A70008F0180020B2
:103C3000084B1B681B6823B9074B4FF0FF321A6013
:103C40007047044B1B68DB68DB685A68024B1A60DC
:103C5000704700BF04190020DC19002010B504468D
:103C6000006BFFF7A3FF2046FFF7A0FF10BD2DE973
:103C7000F04707469846089DDDF824900A9C266B7D
:103C800002F18042013A06EB820626F007064FF069
:103C9000000CBCF10F0F0BD811F80C2004EB0C0337
:103CA00083F8342011F80C3013B10CF1010CF0E75B
:103CB000002384F84330062D00D90625E5626564AB
:103CC0004FF0000AC4F848A0201DFFF707FD04F1DB
:103CD0001800FFF703FD2461C5F10705A5616462C3
:103CE000C4F84CA084F850A0424639463046FFF74D
:103CF00063FD2060B9F1000F01D0C9F80040BDE8B4
:103D0000F087000038B5002407E004EB840293003C
:103D10000E481844FFF7D7FC0134062CF5D90C4D9A
:103D20002846FFF7D0FC0B4C2046FFF7CCFC0A4896
:103D3000FFF7C9FC0948FFF7C6FC0948FFF7C3FCB9
:103D4000084B1D60084B1C6038BD00BF0C190020DB
:103D5000B0190020C4190020E4190020101A002016
:103D6000FC190020041900200819002010B5044691
:103D7000FFF748FD214A136801331360204B1B688D
:103D80005BB1204B1B686BB91D4B1B68DA6AE36A99
:103D90009A4207D81A4B1C6004E0194B1C60136848
:103DA000012B28D0184A136801331360E06A0123FD
:103DB0008340164A11680B43136000EB8000211DFD
:103DC000134B03EB8000FFF78CFCFFF73FFD0D4B1F
:103DD0001B687BB10A4B1B68DA6AE36A9A4209D214
:103DE0004FF0E0234FF08052C3F8042DBFF34F8F04
:103DF000BFF36F8F10BDFFF785FFD3E79819002041
:103E000000190020F8190020A8190020AC19002082
:103E10000C1900200F4B1B68D3B110B5FFF7F2FC53
:103E20000D4BDB68DC68201DFFF77FFC0B4A136835
:103E3000013B1360074A1368013B1360FFF706FD5F
:103E40002046FFF70BFF034B1B68002BE6D110BD8C
:103E5000704700BF9C190020101A002098190020FC
:103E600008B5FFF7D7FF074B1B68012BF9D94FF0B7
:103E7000E0234FF08052C3F8042DBFF34F8FBFF300
:103E80006F8FEEE70C19002070B504460D461D4BF0
:103E90001E681D4B18680430FFF747FC50B91A4BD9
:103EA0001B68DA6A012303FA02F218490B6823EA55
:103EB00002030B60B4F1FF3F0DD03444124B1B687A
:103EC0005C60A64210D9124B18680F4B1968043178
:103ED000FFF712FC70BD002DEFD00B4B19680431B9
:103EE0000C48FFF7FEFBF5E70B4B1868064B19680B
:103EF0000431FFF701FC094B1B68A342EAD9074BC9
:103F00001C60E7E7241A002000190020AC190020EB
:103F100008190020FC19002004190020DC190020D9
:103F20002DE9F04385B00746884614461E469000AA
:103F3000FFF7C2FDF0B181465420FFF7BDFD0546F5
:103F4000A0B1C0F83090D5B10023039302950D9B2A
:103F500001930C9B00933346224641463846FFF7B7
:103F600086FE2846FFF702FF012005E04846FFF7DE
:103F70001DFEE8E74FF0FF3005B0BDE8F0834FF0DD
:103F8000FF30F9E700B583B0164B0193002300938F
:103F9000802215491548FFF7C3FF012805D0B0F16D
:103FA000FF3F17D003B05DF804FB4FF0900383F39D
:103FB0001188BFF36F8FBFF34F8F0D4B4FF0FF3260
:103FC0001A600C4B01221A600B4B00221A60FFF79B
:103FD000A3FCE7E740F2D6720849094800F04CFA22
:103FE000E0E700BFD8190020E0A70008613E000804
:103FF000DC190020F8190020241A00208CA70008E2
:1040000014A70008024A136801331360704700BF09
:10401000A4190020F8B5394B1B68002B62D1384B2E
:104020001E6801361E607EB9364B1B681B68E3B9FB
:10403000344A1168344B186810601960334A1368A9
:1040400001331360FFF7F4FD314B1B68B3423FD9D6
:104050000027304B1B68DB6A03EB83039A002E4B6F
:104060009B58012B43D9012741E040F62D222B49D3
:104070002B4800F001FADBE70127224B1B681B6885
:1040800043B3204B1B68DB68DC6863689E4226D321
:10409000251D2846FFF749FBA36A1BB104F1180050
:1040A000FFF743FBE36A01229A401E490868024376
:1040B0000A6003EB83039A00294617481044FFF770
:1040C00010FBE26A134B1B68DB6A9A42D4D2D4E736
:1040D0000027D2E70E4B4FF0FF321A60B9E70C4AC7
:1040E0001360B6E7104A13680133136000270F4BC3
:1040F0001B6803B101273846F8BD00BFA419002092
:10410000241A00200419002008190020E0190020BA
:10411000DC190020001900200C1900208CA70008D1
:1041200014A70008AC190020A0190020281A0020AC
:1041300038B5344B1B686BB1FFF764FB314B1A6821
:10414000013A1A601B68002B56D12F4B1B6843B9EC
:10415000002452E040F63A022C492D4800F08CF938
:10416000EAE700242B4B1B681BB32A4BDB68DC6897
:1041700004F11800FFF7D9FA251D2846FFF7D5FAF4
:10418000E06A01238340244A11680B43136000EB6B
:1041900080002946214B03EB8000FFF7A2FAE26A78
:1041A0001F4B1B68DB6A9A42DCD31E4B01221A604C
:1041B000D8E70CB1FFF73CFD1B4B1C6884B9194BC9
:1041C0001C68D4B14FF0E0234FF08052C3F8042DA7
:1041D000BFF34F8FBFF36F8F01240EE0013C07D078
:1041E000FFF718FF0028F9D00E4B01221A60F5E7FF
:1041F0000D4B00221A60E2E70024FFF727FB204660
:1042000038BD00BFA4190020981900208CA7000811
:1042100014A70008E4190020AC1900200C19002094
:1042200000190020281A0020A019002010B560B144
:1042300004460F4B1B689BB9FFF7E4FE00212046A4
:10424000FFF722FEFFF774FF48B94FF0E0234FF06D
:104250008052C3F8042DBFF34F8FBFF36F8F10BD93
:1042600040F209520349044800F006F9E4E700BFB0
:10427000A41900208CA7000814A700081E4B1B6877
:104280001BB11E4B01221A60704710B51B4B002258
:104290001A601B4B1C68B4FA84F4E4B2C4F11F0426
:1042A00004EB84029300174AD358C3B1154A04EBB8
:1042B00084018B00134459684968596004EB8400F9
:1042C000830008331A44914210D004EB8404A20006
:1042D0000C4B13445B68DA680B4B1A6010BD40F658
:1042E0004A320A490A4800F0C7F8DFE74968820005
:1042F000044B13445960E8E7A4190020281A002051
:10430000AC1900200C190020001900208CA700080F
:1043100014A70008054B1B6833B1054B1B680BB194
:10432000002070470220704701207047F8190020D4
:10433000A41900200C480D490D4A002302E0D4586E
:10434000C4500433C4188C42F9D30A4A0A4C0023DF
:1043500001E013600432A242FBD3FDF763FA00F0E0
:1043600015F8FDF75FF9704700000020C009002034
:10437000FCAB0008C0090020741A0020FEE7000012
:10438000014B1868704700BF1000002070B50D4E3B
:104390000D4D761BB61006D0002455F8043B0134B1
:1043A0009847A642F9D1094E094D06F01FF9761B30
:1043B000B61006D0002455F8043B01349847A642B5
:1043C000F9D170BDF0AB0008F0AB0008F8AB000805
:1043D000F0AB0008830730B548D0541E002A3FD008
:1043E0000346CAB201E0013C3AD303F8012B9D0712
:1043F000F9D1032C2DD9CDB245EA05250F2C45EA7C
:10440000054536D9A4F1100222F00F0C03F1200E5D
:10441000E6444FEA121C03F1100242E9045542E956
:10442000025510327245F8D10CF1010214F00C0F54
:1044300003EB021204F00F0C13D0ACF1040323F0D1
:1044400003030433134442F8045B9342FBD10CF0A2
:1044500003042CB1CAB21C4403F8012B9C42FBD1CB
:1044600030BD64461346002CF4D1F9E703461446E8
:10447000BFE71A46A446E0E70FB400B5074A83B089
:1044800004AB106853F8042B8168019300F0E0F846
:1044900003B05DF804EB04B0704700BF10000020CB
:1044A0002DE9F043694C0E46D4F8008017460446C7
:1044B0001D4683B0B8F1000F03D0D8F83830002B78
:1044C00077D0022F05D0012F00F2AC80002DC0F272
:1044D000A980636EDA0752D52146404602F0B0FF4C
:1044E000216B41B104F14003994202D0404603F0F0
:1044F000D3F8002323630023B4F90CC0A3611CF09C
:10450000800F636064D12CF44A6C2CF0030C022FF2
:10451000A4F80CC06AD001AB214640466A4603F0BD
:104520005BFAA3891843A081002D2FD0002E2ED036
:10453000D8F83830002B38D0009BC4E90465AB4272
:10454000B4F90C3026601CBF43F40063A381012F33
:1045500004BF43F00103A3819AB213F008032CD0E7
:10456000D1075DD500216D42A561656EA16015F092
:10457000010527D00025284603B0BDE8F083A389B4
:104580009B05A9D4A06D03F0B3F9A5E7009D2846CB
:1045900003F052FA0646002847D0A38943F080036F
:1045A000A381D8F83830002BC6D1404602F07CFFFA
:1045B000C2E7404602F078FF83E7A360656E15F01E
:1045C0000105D7D1930524D5284603B0BDE8F08373
:1045D0004046216903F060F8B4F90CC0022F2CF4B6
:1045E0004A6C2CF0030CA4F80CC094D100250021D7
:1045F000012204F1430323602361636E4CF0020C3B
:10460000D807A4F80CC0A1606261DDD41CF4007F5F
:10461000DAD1A06D03F06EF9284603B0BDE8F0834F
:10462000A560CBE74FF0FF35CEE7DDF80090A94558
:1046300004D0484603F000FA064620B94FF0FF3593
:10464000B4F90CC0D3E74D46A7E700BF1000002027
:104650002DE9F04FD5B01C469146079105460990CB
:1046600003F03EF902680E941046179204F020F908
:1046700016901DB1AB6B002B00F01D82079A536E94
:10468000DD0740F12D81B2F90C2091B28F0409D4DD
:10469000079B42F400529A8191B21A465B6E23F452
:1046A000005353660E0740F1C080079B1B69002B27
:1046B00000F0BB8001F01A030A2B00F0C480002434
:1046C0002BAB224698464D46CDE9294428931294B7
:1046D00000230024CDE914342B78CDE91922CDE94B
:1046E0001B2218920B92002B00F08F81AA4604E047
:1046F0001AF8013F002B00F0BB80252BF8D1BAEB54
:10470000050640F0B9809AF80030002B00F07D815A
:1047100000234FF0FF324FF02B0920241F469AF858
:10472000016008920AF1010A8DF883300A930AF1B8
:10473000010AA6F120035A2B00F2E180DFE813F012
:104740000503DF00DF000003DF00DF00DF00DE0223
:10475000DF00DF006A006E02DF0055027802DF0032
:1047600073025B005B005B005B005B005B005B0057
:104770005B005B00DF00DF00DF00DF00DF00DF0049
:10478000DF006C01DF00EA01C4016C016C016C0107
:10479000DF00DF00DF00DF00D002DF00DF002302E8
:1047A000DF00DF00DF00F801DF009202DF00DF0042
:1047B0008707DF00DF00DF00DF00DF00DF00DF0052
:1047C000DF006C01DF00EA01C6016C016C016C01C5
:1047D000B602C601BF01DF00C302DF005A02250294
:1047E000A402BF01DF00F80172008407DF00DF00D0
:1047F0006507DF0072000022A6F130031AF8016B92
:1048000002EB820203EB4202A6F13003092BF5D939
:104810000A928EE70E9B53F8042B002A0A920E93FD
:10482000C0F2E0819AF8006081E7079D0998294667
:1048300001F0FCFC002841F04D83A98901F01A0326
:104840000A2B7FF43CAF079AB2F90E30002BFFF62B
:1048500036AF536ED80702D4890541F1488123460B
:104860004A460799099855B0BDE8F04F01F09CBC45
:10487000BAEB050600F0C9802A9BC8E9005633440C
:104880002A93299B0133072B299305DC08F108089B
:104890000B9B33440B9336E70799099828AA04F039
:1048A000A5F880B90DF1AC08F2E70799099828AA94
:1048B00004F09CF8002800F099800D9B1BB119466C
:1048C000099802F0E9FE079A536ED90740F1E88093
:1048D00093895B0601F10A830B9855B0BDE8F08F10
:1048E000079BB3F90C20900591B23FF5CFAE1D4662
:1048F000986D02F0FDFFB5F90C2091B2C6E6002ECE
:1049000000F08380012300228DF8EC6006933BAD1C
:104910008DF883200C930D9208920F9213921092AF
:1049200017F0020302D006990231069117F0840BAA
:1049300007D10A990698A1EB0009B9F1000F00F31D
:1049400090832A9C82B10122C8F80420299A01345C
:1049500001320DF18301072A2A942992C8F8001028
:1049600000F3D88308F108087BB10223C8F80430AB
:10497000299B0234013321AA072B2A942993C8F8D2
:10498000002000F3D58308F10808BBF1800F00F088
:104990008882089B0C9AA3EB020BBBF1000F00F37B
:1049A000CB82FB0500F11F820C9BC8F800501C4411
:1049B000C8F80430299B2A940133072B299300F36C
:1049C000448308F10808780705D50A9B069A9D1AC2
:1049D000002D00F3B983DDE90A2306998A42ACBFB2
:1049E0009B185B180B93002C7FF45FAF0023299377
:1049F0000D9B1BB10D99099802F04EFE55460DF125
:104A0000AC082B78002B7FF471AE2A9B002B41F071
:104A100010820023299356E70E9B073323F00702E9
:104A2000F2E80234CDE91434DDE9143424F0004412
:104A3000994618460E9221464FF0FF32AB4BFCF7D9
:104A400053F8002840F01885484621464FF0FF32C1
:104A5000A64BFCF72BF8002840F00E85DDE9140189
:104A600000220023FCF718F8002840F065879DF825
:104A70008320002103209E4D9E4B27F080070D913F
:104A80000690472EC8BF1D4608910C900F911391B8
:104A90001091002A3FF444AF069B013306933FE791
:104AA000079B9B899A053FF514AF079CA06D02F008
:104AB00021FFA3890DE7099802F0F6FCDEE59AF8DC
:104AC000006047F0200732E647F01007BA060E9B59
:104AD00040F16E84073323F007031A465B6852F8EF
:104AE000084B99460E92002BC0F26F84089B01334D
:104AF00000F0FB8254EA090327F0800B40F0F682B5
:104B0000089B002B40F0F7825F46002354AD0893CA
:104B10000C933DE1012000220E9B069053F8041BEC
:104B20003BAD8DF883208DF8EC100E930C90F2E6DF
:104B30004FF000090E9C089B54F8045B8DF883909D
:104B4000002D00F0A1855A1C00F0A5861A464946A2
:104B5000284603F025FA0D90002801F050810D9BA6
:104B60009DF883205B1B0C9323EAE373CDF8209020
:104B70000E940693CDF83490CDF83C90CDF84C903F
:104B8000CDF8409085E747F0100717F0200900F0B6
:104B9000F2830E9B073323F00703D3F8049053F8F6
:104BA000084B0E93002327F4806B00228DF883209E
:104BB000089A511C00F0D48054EA09012BF08007B8
:104BC00040F0CD80002A40F00486002B9DD11BF0E0
:104BD00001030C9300F0308430230DF24F158DF853
:104BE0004F31D5E00A9B5B420A939AF8006047F088
:104BF00004079CE5BD0600F1FD84FC0600F1EE858E
:104C0000780600F1B286B90540F1E8850E9B0B9954
:104C100053F8042B554611700E93F2E69AF8006093
:104C20008DF8839083E59AF8006047F080077EE571
:104C3000524612F8016B2A2E01F08D82A6F1300344
:104C4000092B924698BF002201F2E5801AF8016B09
:104C500002EB820203EB4202A6F13003092BF5D9E5
:104C6000089266E547F0100B1BF0200900F09183D5
:104C70000E9B073323F007031A4652F8084BD3F86C
:104C800004900E92012390E7302278260E9B8DF837
:104C9000842053F8044B184A0E934FF00009022366
:104CA00047F0020B8DF8856018927EE79AF8006055
:104CB000682E03BF9AF8016047F400770AF1010AF1
:104CC00047F0400733E59AF800606C2E03BF9AF86E
:104CD000016047F020070AF1010A47F0100726E5B6
:104CE0009AF8006047F0080721E500BFFFFFEF7F5B
:104CF000ECA70008F0A70008FCA70008099E3046B2
:104D000002F0EEFD436818461B9303F0D1FD034605
:104D100030461C931E4602F0E3FD83681993002E73
:104D20003FF480AD199B002B3FF47CAD199B1B78A1
:104D3000002B3FF477AD9AF8006047F48067F6E403
:104D40009AF8006047F00107F1E49DF88330002BEA
:104D50007FF468AD9AF800608DF88340E7E4BB46C5
:104D6000012B00F0C381022B54AD1FD1189A04F01F
:104D70000F03D35C240944EA09744FEA191905F8B2
:104D8000013D54EA0903F2D15F4654AB5B1B0C931F
:104D9000089A0C9900238A42B8BF0A460D930692DE
:104DA0000F939DF883201393109372E604F007038A
:104DB000E40844EA49744FEAD909303354EA090156
:104DC0002A4605F8013DF1D11BF0010FDCD0302B54
:104DD000DAD03023023A05F8013C54AB9B1A5F4607
:104DE00015460C93D4E7652E40F3E980DDE9140104
:104DF00000220023FBF746FE002800F0E18101239A
:104E0000C8F80430299BC04A01330134072B2A9487
:104E10002993C8F8002000F3BF8408F10808229BFA
:104E2000129A934280F2DC82169B179A1C44C8E9BE
:104E30000023299B2A940133072B299300F317841D
:104E400008F10808129B5D1E002D7FF7BCAD102DE8
:104E500041F35D81DFF8B492224649461026B946F7
:104E6000299B0F46DDF824B0079C05E008F10808EF
:104E7000103D102D40F39D8401331032072BC8E9FB
:104E80000076CDE92932F1DD2146584628AA03F003
:104E9000ADFD00287FF411ADDDE929320DF1AC083C
:104EA000E6E70A9B069AA3EB020BBBF1000F7FF724
:104EB00070ADBBF1100F41F35280DFF850924146C4
:104EC0002046A8464C461023299A079DDDF82490D9
:104ED00006E0ABF1100BBBF1100F01F1080119DD79
:104EE00001321030072AC1E90043CDE92920F0DD65
:104EF0002946484628AA03F079FD00287FF4DDAC56
:104F0000DDE92920ABF1100BBBF1100F4FF01003BE
:104F10002BA9E5DC4546A1468846044601325C449F
:104F2000072ACDE92924C8F80090C8F804B000F396
:104F3000918308F108082CE5BBF1100F40F3E384DE
:104F4000DFF8C89141462046A8464C461023299ACE
:104F5000079DDDF8249006E0ABF1100BBBF1100FBC
:104F600001F1080119DD01321030072AC1E90043BF
:104F7000CDE92920F0DD2946484628AA03F036FD70
:104F800000287FF49AACDDE92920ABF1100BBBF1CE
:104F9000100F4FF010032BA9E5DC4546A1468846CB
:104FA000044601325C44072ACDE92924C8F8009060
:104FB000C8F804B000F3D28108F10808F1E4129BAC
:104FC000012B40F382810123299E01341E44072EC8
:104FD000C8F800502A94C8F80430299600F36C836E
:104FE00008F10808169B0136179A1C44072EC8E9D9
:104FF0000023CDE9296400F36C8308F1080800223E
:10500000DDE914010023FBF73DFD002840F07A8123
:10501000129B0136013B01351C44072EC8F8005095
:105020002996C8F804302A9400F35F8108F1080833
:105030001A9B01361C44C8F80430072E24ABCDE976
:105040002964C8F800307FF7BCAC0799099828AAF2
:1050500003F0CCFC00287FF430AC2A9C0DF1AC08A6
:10506000B1E4B9F1100F40F3C686DDE929214046CD
:10507000CDE91D36B84610244F46079EA946099D26
:1050800004E0103F102F00F1080016DD0132204B24
:105090001031072AC0E90034CDE92921F1DD31467C
:1050A000284628AA03F0A2FC00287FF406ACDDE91C
:1050B0002921103F102F2BA8E8DC4D46DDE91D36D5
:1050C000B9464746804609EB010401321049072AD8
:1050D000CDE92924C8F80490C8F8001000F34083F3
:1050E0009DF8832008F108082CE4BB460A2C79F1CE
:1050F000000380F0FB82012330345F468DF84F417E
:105100000C930DF24F1543E62CA8000840A80008A8
:1051100030A800080799099828AA1D9303F066FC97
:1051200000287FF4CAAB2A9C1D9B0DF1AC081BE440
:105130000799099828AA03F059FC00287FF4BDAB11
:105140002A9C0DF1AC0820E4102D40F3BE861026F9
:10515000299B099FDDF81C9004E0103D102D08F1FB
:10516000080817DD0133BA4A1034072BC8E90026B6
:10517000CDE92934F1DD4946384628AA03F036FC4A
:1051800000287FF49AABDDE92934103D102D0DF194
:10519000AC08E7DC0133AE4A2C44072BCDE92934B7
:1051A000C8F80450C8F800207FF715AC0799099893
:1051B00028AA03F01BFC00287FF47FAB2A9C0AE49A
:1051C0002299002940F31081DDF84090129B994507
:1051D000A8BF9946B9F1000F0BDD299B4C44013360
:1051E000072BC8E900592A94299300F3818508F117
:1051F0000808109EB9F1000FA8BFA6EB0906002E03
:1052000000F3F582DDF840B07905AB4400F1AC84E1
:10521000229B129A934202DBFA0740F19283169A7C
:1052200017991444C8E90012299A2A940132072ACE
:10523000299200F3A88508F10808129AAE18A6EB87
:105240000B06D51AAE42A8BF2E46002E0DDD299BB7
:1052500034440133072BC8F800B0C8F804602A941E
:10526000299300F3FC8508F10808002EA8BFAD1BA8
:10527000002D7FF7A8AB102D40F34987DFF8D491BC
:10528000224649461026B946299B0F46DDF824B030
:10529000079C05E008F10808103D102D40F38982B5
:1052A00001331032072BC8E90076CDE92932F1DD50
:1052B0002146584628AA03F099FB00287FF4FDAA4E
:1052C000DDE929320DF1AC08E6E7FE073FF57BAEDC
:1052D0000123299E01341E44072EC8F800502A9449
:1052E000C8F8043029967FF7A1AE0799099828AA33
:1052F00003F07CFB00287FF4E0AADDE929640DF1CE
:10530000AC0895E6129B5D1E002D7FF791AE102D27
:1053100040F31987224608974FF0100BDFF83491BD
:10532000099C079F05E008F10808103D102D40F387
:10533000C78201361032072EC8E9009BCDE92962E9
:10534000F1DD3946204628AA03F050FB00287FF4FF
:10535000B4AADDE929620DF1AC08E6E707990998DE
:1053600028AA03F043FB00287FF4A7AA2A9C0DF18A
:10537000AC08FFF716BB17F0100377D117F0400207
:1053800000F0AC820E9A994652F8044B0E92A4B2E9
:1053900008E41BF010030E9A54D11BF040014DD0CD
:1053A00052F8044B99460E920123A4B2FFF7FDBBBD
:1053B00053F8044B0E93FB0653D47D064ED544F3AD
:1053C000C0394B4624B2FFF78EBB2D2364428DF8C3
:1053D0008330BB464FF0010369EB4909FFF7E8BB97
:1053E000F8077FF5F0AA1FE50123C8F80430299BD0
:1053F000194A01330134072B2A942993C8F8002055
:1054000000F3688408F10808002940F02582129A08
:1054100007F0010313433FF4D6AA169B1799E2182D
:10542000C8E90013299B2A920133072B299300F323
:10543000508308F1080820E254ADA9E41BF4007978
:1054400040F0A08252F8044B01230E92FFF7ADBB4F
:1054500030A8000840A800082CA80008B80500F1F2
:1054600079824FEAE4794B46FFF73DBB0E9B53F838
:10547000044B0E93FFF796BBDDE9140102460B4681
:10548000FBF732FB002840F0F785612E00F06C85B9
:10549000412E00F07F82089B013300F0948526F0B6
:1054A0002003472B069300F07B85DDE9141247F4B7
:1054B00080730F931346002BC0F2F4850C930023E6
:1054C0008B461D930D93069B462B00F02B84452B9A
:1054D00000F0148508990C9B01910221009126A9E6
:1054E000049123A9039122A95A460998029100F038
:1054F000AFFF069B0546472B40F0448617F0010F8F
:10550000B9460F9F40F0F784269B5B1B1293069BC6
:10551000472B00F0F182069B462B00F04284229B31
:105520001093109B069A013B412A229300F08A8532
:105530000021F2B2002B8DF89020B6BF2D222B2235
:10554000109B8DF89120B8BFC3F10103092B40F3E4
:1055500081850DF19F0C6246BA4F1C46104687FBB1
:105560000312D917C1EBA20101EB8102A3EB4202A6
:105570003032632C00F8012C0B4600F1FF32ECDCDA
:105580003033811EDBB28C4502F8013C40F2FF85CE
:105590000DF1920101E012F8013B944501F8013B45
:1055A000F9D10DF1A1030DF192021B1A134424AAA3
:1055B0009B1A1A93129B1A9A012B1A440C9240F3CD
:1055C0009E850C9B169A13440C9300230C9A29F485
:1055D000806722EAE27247F480770F930692139372
:1055E00010931D9B002B40F0B0829DF88320089300
:1055F000FFF74FBA0E9B0B9853F8041BC217554682
:10560000C1E900020E93FFF7FCB98F4B189317F016
:10561000200949D00E9B073323F00703D3F80490E9
:1056200053F8084B0E93F80709D554EA090306D03E
:1056300030238DF8856047F002078DF8843002230F
:1056400027F4806BFFF7B1BABB46FFF70DBB7F4B6A
:105650001893DCE70799099828AA03F0C7F90028EE
:105660007FF42BA92A9C0DF1AC08FFF792B907999A
:10567000099828AA03F0BAF900287FF41EA92A9CE9
:105680000DF1AC08FFF7DEBB062B294628BF062329
:105690002A4608950D9506936D4D0E940C930F9127
:1056A00013911091FFF7F5B917F0100369D00E9B15
:1056B00053F8044B0E93B6E70799099828AA03F00C
:1056C00095F900287FF4F9A8DDE929640DF1AC080B
:1056D00088E40799099828AA03F088F900287FF43C
:1056E000ECA8DDE929640DF1AC0888E400230BF493
:1056F0008062CDE90CA8069692461E46DDF86480CD
:1057000054AF0CE00023204649460A22FBF72AFA50
:105710000A2C79F100031BD3044689462F46204604
:105720000A2200234946FBF71DFA30327D1E01365E
:1057300007F8012CBAF1000FE4D098F800309E422F
:10574000E0D1FF2EDED00A2C79F1000380F0E0805A
:10575000CDF864801296DDE90CA8069EFFF714BB15
:105760000799099828AA1D9303F040F900287FF4AF
:10577000A4A89DF883202A9C1D9B0DF1AC08FFF77F
:10578000E1B817F0400200F0B4800E9A994652F842
:10579000044B0E92A4B246E70799099828AA03F091
:1057A00025F900287FF489A82A9C0DF1AC08FFF7A1
:1057B00036BB14463A464F46914601332C44072BDC
:1057C000C8F80090C8F80450CDE929347FF7F9A84B
:1057D0003BE4012BBB467FF4C6AA8CE40E9B0B99DD
:1057E00053F8042B554611600E93FFF70AB9102E9B
:1057F00040F3AD84DFF85C90424648462146A84617
:10580000B9464FF0100B0746299B099C079D04E001
:105810000832103E102E40F3488201331031072B1E
:10582000C2E9007BCDE92931F2DD2946204628AACC
:1058300003F0DCF800287FF440A8DDE929312BAA29
:10584000E7E700BF67666666FCA7000810A80008C7
:1058500024A8000840A80008169B1798E218C8E979
:105860000003299B2A920133072B299300F33181EE
:1058700008F108080029C0F20283129901338C183C
:10588000072BCDE92934C8F80050C8F804107FF779
:1058900098A8FFF7DABB2846CDF820900E9403F0C5
:1058A00007F820EAE073CDE90C099DF88320CDF8D4
:1058B0003C90CDF84C90CDF840900693FFF7E9B8B6
:1058C0001446089F01362C44072ECDE92964C8F8F8
:1058D0000090C8F804507FF7A9AB06E517F40079EB
:1058E0000E9B3DD053F8044B91460E93E4B2FFF764
:1058F00059B917F400790E9B40D053F8044B9146E8
:105900000E93E4B28FE6299ADFF84C92FFF749BB79
:105910001C9B1B99ED1A1A46284602F0F7FF98F8CF
:1059200001300BB108F10108204649460A22002344
:105930000026FBF717F9EFE62D228DF88320FFF7FD
:1059400098B8129AAE18A6EB0B06D51AAE42A8BFAD
:105950002E468AE444F3C0194B4664B2FFF7C3B83D
:1059600053F8044B0E93FFF71DB90E9B0B9953F898
:10597000042B554611800E93FFF743B853F8044BA0
:105980000E9350E652F8044B894601230E92E4B27E
:10599000FFF70BB930238DF8843058238DF885300C
:1059A000089B47F00204632B00F3E38200233BAD26
:1059B0000D9347F481730F93DDE914121346002B06
:1059C0002746C0F240820C9300238B461D9326F09D
:1059D00020030693612E00F01783412E7FF473ADF0
:1059E00022AA58460C9902F0D3FE00224FF07F53B2
:1059F000FAF7E0FD02460B46CDE910230022002312
:105A0000FBF740F808B101232293544B0C93089BF9
:105A1000CDE912A6CDE91E78DDE91067AB46DDF8C9
:105A200030A003F1FF39109506E00022002309F1B0
:105A3000FF39FBF727F8E8B90022494B30463946D1
:105A4000FAF7B8FD0F460646FBF764F80446FAF786
:105A500047FD0B46024639463046FAF7F3FB1AF883
:105A60000430B9F1FF3FD8464D4606460F460BF8C5
:105A7000013BDAD13046394600223A4BA946DDF8DF
:105A800048A0109DCDF84880CDE91001DDF87C805C
:105A9000139E1E9FFBF71EF8002840F04482DDE9AC
:105AA000100100222F4BFAF7EDFF10B1E10700F1D2
:105AB0003A824B46002B06DB302201335B440BF865
:105AC000012B5B45FBD1ABEB0503B94612930F9F4E
:105AD0001DE50799099828AA02F088FF00287EF49E
